S01600006275696C642F62696C6C6E69636B792E733139DE
S113000000600020C10000007D1900007F1900007D
S113001000000000000000000000000000000000DC
S11300200000000000000000000000009118000023
S11300300000000000000000B91800006119000071
S1130040891900008B1900008D1900008F19000018
S113005087190000911900009319000095190000F8
S113006097190000991900009B1900009D190000C0
S11300709F190000A1190000A3190000A519000090
S1130080A7190000A9190000AB190000AD19000060
S1130090AF190000B1190000B3190000B519000030
S11300A0B7190000B9190000BB190000BD19000000
S11300B0BF190000C1190000C3190000C5190000D0
S11300C00749084A084B9B1A05DD002408591051BA
S11300D004349C42FADB0548804705480047000089
S11300E0B41D0000C0E0FF1F38E1FF1FE904000059
S10700F07104000093
S1130400FFFFFFFFFFFFFFFFFFFFFFFFFEFFFFFFF9
S113041010B5064C2378002B07D1054B002B02D0D6
S1130420044800E000BF0123237010BD38E1FF1F22
S113043000000000A81D0000084B10B5002B03D0DD
S11304400749084800E000BF07480368002B00D1B3
S113045010BD064B002BFBD09847F9E700000000C5
S11304603CE1FF1FA81D000038E1FF1F0000000051
S1130470164B002B00D1144B9D46402292029A1A2F
S1130480924600218B460F461348144A121A01F073
S113049080FB0F4B002B00D098470E4B002B00D055
S11304A098470020002104000D000D48002802D0C8
S11304B00C4800E000BF01F029FB2000290000F0F7
S11304C0D5F801F00DFBC0460000080000600020D4
S11304D0000000000000000038E1FF1FFCE3FF1FE4
S11304E000000000000000008822002110B58024D4
S11304F0214B2248520199501A58A40022431A5001
S11305001F48204A9850204B204A986C1040986409
S1130510D86C0240DA6440221D4B587802402420F3
S113052002435A701B4A5C3010709A221A70D878B1
S11305307B3A0240DA7001221A7159710F329979AB
S11305401142FCD10C219A790A40082AFBD140219E
S11305500F4A517134399A790A40082AFBD138324A
S113056099791142FCD01A21094A11700E399A79ED
S11305700A400C2AFBD110BD007004403810000062
S1130580000001104410000000900440FFF8FFFE3A
S1130590004006400050064037B52025012210488F
S11305A001A900235242006800F067FA019C03216C
S11305B0200001F08FFA002908D10531200001F054
S11305C089FA8022074B9205DA6003E005212000B6
S11305D001F080FA0029E1D1034BDD60DEE7C0467B
S11305E054E1FF1F00F10F40C0F00F40002307B596
S11305F00193019B14200133019300F07FFD00233C
S113060003481A0001A9006800F061F9F1E7C04647
S113061054E1FF1F802030B50E4A0F4B8001D158A2
S1130620802501438020D1500C4940000C4C486780
S11306306169AD05294361618024D1586401214376
S1130640D1502021074B084A586153690B43536129
S113065030BDC046007004403810000000D0044093
S113066000F10F4000C00440C0F00F401FB5FFF779
S1130670D1FF8021164A8905536801200B432021AC
S11306805360144A53680B4353601C39002200F032
S1130690F8F8114B1860002818D000240223C8224F
S11306A000930E4923000394029401940C4800F033
S11306B023FB0123C82200930A49230003940294D4
S11306C00194094800F018FB00F0ECFBFEE7C0467B
S11306D000F10F40C0F00F4054E1FF1F901D0000D7
S11306E0ED050000931D00009905000010B50400FD
S11306F000F006FC200001F02FFA040000F096FC44
S1130700200010BD10B5041E06D000F0F9FB200037
S113071001F02CFA00F08AFC10BD70B51500026CD3
S11307200400002A07D10568002D2AD1406800F092
S113073085FE656026E0002D0DD1806801F020FA69
S1130740A368226C9B186268A360934219D3236840
S11307502800A36016E0C06801F012FA236CE26876
S11307605B422168D218E2608A4202D26268D318DE
S1130770E360022D05D1A36B002B02D0A36B013BD8
S1130780A3630020A36B0133A36370BD03001A6C41
S113079010B50800002A0AD0D9685C688918D960A5
S11307A0A14201D31968D960D96801F0E9F910BDF3
S11307B010B5040001F0B6F8A36C002B0EDD636ADB
S11307C0002B0BD02000243000F06CFD002801D059
S11307D000F0E8FDA36C013BA364EDE701235B4259
S11307E0A36401F0B1F801F09DF8636C002B0EDDF9
S11307F02369002B0BD02000103000F053FD00289B
S113080001D000F0CFFD636C013B6364EDE701238D
S11308105B42636401F098F810BD70B504000D00EC
S1130820002802D101F06AF8FEE701F07BF8216CA0
S1130830E36B22684B43D0185B1AD318E36001239F
S1130840606000205B42A063A2606364A36485428D
S11308500BD12369834210D02000103000F022FD18
S113086001280AD100F0DCFF07E02000103000F07E
S1130870C4F92000243000F0C0F901F065F801202B
S113088070BD70B506000D00002802D101F036F8E5
S1130890FEE70020814202D00800704301304C3052
S11308A0FFF724FF041E07D0002D01D1206006E0CD
S11308B003004C33036002E001F020F8FEE7E66336
S11308C0256401212000FFF7A8FF200070BDF0B5CA
S11308D085B00400009101921D00002802D101F0AE
S11308E00DF8FEE7009B002B05D1036C002B02D012
S11308F001F004F8FEE7022D05D1E36B012B02D0D1
S113090000F0FCFFFEE700F053FD0027002835D17E
S1130910019F002F32D067E0002F02D102A800F01F
S1130920FDFC01F011F800F0EBFA00F0FBFF636C42
S1130930013301D100236364A36C013301D100238B
S1130940A36401F001F801A902A800F0F9FC002851
S113095043D100F0E7FFA76BE66B00F0F5FFB74269
S113096035D120000199103000F05EFC2000FFF723
S11309701FFF00F05BFB002826D0012700F0D2FF08
S1130980A36BE26B934201D3022D16D12A00009986
S11309902000FFF7C2FE636A002B08D02000243039
S11309A000F080FC012804D100F03AFF01E00028A7
S11309B0FAD100F0C9FF012019E0019E002EABD14D
S11309C000F0C2FF300012E000F02AFFD5E720005B
S11309D0FFF7EEFE00F02AFBCFE72000FFF7E8FE6A
S11309E000F024FB002002E000F088FFFEE705B0E1
S11309F0F0BDF7B50400009117001E00002802D1D5
S1130A0000F07CFFFEE7009B002B05D1036C002B5C
S1130A1002D000F073FFFEE7022E05D1E36B012B39
S1130A2002D000F06BFFFEE700F068FFA36BE26BFF
S1130A300190934202D30025022E19D1320000996D
S1130A402000FFF76AFEA36C01330DD1636A002B0B
S1130A500DD02000243000F025FC002807D0002F02
S1130A6005D001253D6003E0A36C0133A364012597
S1130A70019800F065FF2800FEBDF0B585B00400C4
S1130A800F0001920093002802D100F037FFFEE727
S1130A90002905D1036C002B02D000F02FFFFEE7E4
S1130AA000F086FC002600283ED1019E002E3BD09B
S1130AB081E0002E02D102A800F030FC00F044FFD7
S1130AC000F01EFA00F02EFF636C013301D1002305
S1130AD06364A36C013301D10023A36400F034FFE9
S1130AE001A902A800F02CFC00285DD100F01AFF37
S1130AF0A56B00F029FF002D50D12368002B06D1EF
S1130B0000F010FF606800F063FC00F01DFF20009F
S1130B100199243000F088FB2000FFF749FE00F023
S1130B2085FA002837D0012600F0FCFEA36B002BC9
S1130B302AD039002000E568FFF728FE009B002B2F
S1130B4014D1A36B013BA3632368002B02D100F0F3
S1130B50A3FC60602369002B12D02000103000F049
S1130B60A1FB01280CD100F05BFE09E0636AE5609B
S1130B70002B05D02000243000F094FB0028F2D193
S1130B8000F0E2FE012019E0019D002D91D100F05A
S1130B90DBFE280012E000F043FEC4E72000FFF76C
S1130BA007FE00F043FABEE72000FFF701FE00F065
S1130BB03DFA002002E000F0A1FEFEE705B0F0BD22
S1130BC070B504000D0000F0ADFE636C013301D17B
S1130BD000236364A36C013301D10023A36400F0F8
S1130BE0B3FEA36B002B04D120002900243000F0B5
S1130BF03FFB2000FFF7DCFD70BD0300012208333A
S1130C004360C36003610023524282600360704703
S1130C1000230361704743684B609A688A609A684E
S1130C2051609960086103680133036070470300F1
S1130C300A6830B50833541C01D1036905E05C68C7
S1130C402568AA4201D32300F9E75A684A609160F3
S1130C508B605960086103680133036030BD4268EA
S1130C608168036991608268416851605A68904262
S1130C7001D182685A60002202611A68501E18600D
S1130C8070470000074A13681968074B002902D10E
S1130C900122524203E01268D268D26852681A6094
S1130CA07047C0465CE1FF1FC4E0FF1F10B50D4B49
S1130CB004001A6850600C4A1268904206D20B4A2B
S1130CC0106819680431FFF7B2FF0AE0084A106897
S1130CD019680431FFF7ABFF064B1A68944200D23F
S1130CE01C6010BD10E3FF1F2CE3FF1F30E3FF1F48
S1130CF05CE1FF1FC4E0FF1FF7B506000091170079
S1130D000193002802D100F0F9FDFEE7089B112BA6
S1130D1002D900F0F3FDFEE70A9D002D05D19000F5
S1130D20FFF7E4FC051E00D19EE05020FFF7DEFC37
S1130D30041E0DD0BF0005633A00A521280000F071
S1130D4028FF236B043FDF1907239F43002306E09A
S1130D502800FFF7D7FC87E001330C2B08D0009A5A
S1130D60D15C1A003432A154009AD25C002AF3D127
S1130D70230000253F331D70089B6564E3622364F0
S1130D80231D18000093FFF743FF20001830FFF7DE
S1130D903FFF1223089A24619B1AA36123004C335A
S1130DA06462A564019A1D703100380000F008FDEA
S1130DB0099B2060AB4200D01C6000F0B3FD2C4BBB
S1130DC02C4D1A6801321A602E68002E22D12C6034
S1130DD01B68012B28D1B4277F00274B98191436A0
S1130DE0FFF70BFFBE42F8D1244F3800FFF705FF91
S1130DF0234E3000FFF701FF2248FFF7FEFE224892
S1130E00FFF7FBFE2148FFF7F8FE214B1F60214B43
S1130E101E6009E0204B1B68002B05D12B68089A43
S1130E20DB6A9A4200D32C601C4AE06A13680133DF
S1130E3013601B4B1A68904200D91860142358435E
S1130E400D4B00991818FFF7E6FE00F07DFD124BDC
S1130E5001241B68002B09D02B68089ADB6A9A428C
S1130E6004D900F0DDFC01E0012464422000FEBD51
S1130E7038E3FF1F10E3FF1F94E1FF1F68E1FF1F2A
S1130E807CE1FF1F14E3FF1FFCE2FF1F3CE3FF1F95
S1130E905CE1FF1F30E3FF1F60E1FF1F34E3FF1F2E
S1130EA050E3FF1F30B5002485B0039402940194ED
S1130EB000942300C8220E490E48FFF71DFF0500C9
S1130EC001280DD100F03EFB0500012808D100F0F7
S1130ED015FD094B1D60094B1C6000F0B9FC04E0D2
S1130EE0002D02D100F00AFDFEE705B030BDC0467A
S1130EF0961D00004911000060E1FF1F2CE3FF1F55
S1130F00024A1368013313607047C04628E3FF1F89
S1130F1010B500F007FD034B1C6800F015FD200020
S1130F2010BDC0462CE3FF1FF7B5354B1B68002BE3
S1130F3038D1344B1A6801321A601F68002F12D15D
S1130F40314B1A681268002A02D000F0D7FCFEE781
S1130F502E4A19681068186011602D4A136801330D
S1130F601360FFF78FFE2B4E002533689F420ED38C
S1130F70254B1A681268002A02D101235B4205E05E
S1130F801B68DB68DC6863689F4216D23360224BBF
S1130F901B68DA6A14235343204AD358012B06D919
S1130FA0012504E000251E4A1368013313601D4B1C
S1130FB01B68002B22D0012520E0231D180001937B
S1130FC0FFF74DFEA36A002B03D020001830FFF773
S1130FD046FE154BE06A1A68904200D91860142343
S1130FE058430E4B211D1818FFF715FE0A4BE26AF1
S1130FF01B68DB6A9A42BBD30125B9E72800FEBD12
S113100028E3FF1F2CE3FF1F5CE1FF1F30E3FF1FFA
S113101058E1FF1FC4E0FF1F10E3FF1F94E1FF1F0F
S113102090E1FF1F54E3FF1F50E3FF1FF8B52B4C63
S11310302368002B02D100F061FCFEE700F072FC93
S11310402368013B23602368002B01D0002441E086
S1131050234B1B68002BF9D014260127214B1A6857
S1131060002A1ED0DB68DC682000251D1830FFF73D
S1131070F6FD2800FFF7F3FD1B4BE06A1A68904267
S113108000D918607043194B29001818FFF7C3FDE5
S1131090174BE26A1B68DB6A9A42DFD3154B1F6069
S11310A0DCE7154C2368002B06D1124B1C68012C7D
S11310B0CCD100F0B5FB0DE001252368002BF4D062
S11310C0FFF732FF002801D00A4B1D602368013B63
S11310D02360F2E700F038FC2000F8BD28E3FF1F8E
S11310E038E3FF1F14E3FF1F50E3FF1F94E1FF1FCA
S11310F010E3FF1F54E3FF1F90E1FF1F10B5041E10
S113110002D100F08DFB17E00C4B1B68002B02D0C2
S113111000F0F4FBFEE7FFF7F3FE094B1B68E4184D
S1131120084B18680430FFF79AFD2000FFF7BEFD56
S1131130FFF77CFF0028E4D010BDC04628E3FF1F62
S11311402CE3FF1F10E3FF1F70B5154C2368002B21
S11311501ED0FFF7D5FE134D2E68FFF767FF002E54
S1131160F3D000F0DFFBEB68DD68281DFFF777FDA7
S11311700D4A1368013B13602368013B236000F0B0
S1131180E3FB286BFFF7BEFA2800FFF7BBFADCE7A6
S1131190064B1B68012BD8D900F042FBD5E7C046AB
S11311A064E1FF1FFCE2FF1F38E3FF1F94E1FF1F10
S11311B010B5184B1A68184B002A01D0012227E0F9
S11311C014241A601548164A1368010063431B5817
S11311D0002B09D11368002B02D100F08FFBFEE72E
S11311E01368013B1360EFE7142314686343C218C8
S11311F0506808334068CB185060984201D1436866
S11312005360142213006343CB185B68DA68054B00
S11312101A6010BD28E3FF1F54E3FF1F94E1FF1F72
S113122050E3FF1F10E3FF1F70B50D00002802D12B
S113123000F064FBFEE70B4C21681831FFF7F7FC64
S113124020680430FFF70BFD6B1C05D121680648AC
S11312500431FFF7E0FC04E0044B18682818FFF79A
S113126025FD70BD10E3FF1F3CE3FF1F2CE3FF1FB0
S113127070B50C00002802D100F040FBFEE7074DDA
S113128029681831FFF7C7FC28680430FFF7E7FC2A
S1131290034B18680019FFF709FD70BD10E3FF1F29
S11312A02CE3FF1F70B5C368DC68002C02D100F08A
S11312B025FBFEE7250018352800FFF7D0FC114B6D
S11312C01B68002B0FD1251D2800FFF7C8FC0E4B0F
S11312D0E06A1A68904200D91860142358430B4BF3
S11312E02900181801E029000948FFF794FC094B6C
S11312F0E26A1B680020DB6A9A4202D9064B01307D
S1131300186070BD28E3FF1F50E3FF1F94E1FF1F27
S113131014E3FF1F10E3FF1F54E3FF1F10B5002861
S113132002D100F0EBFAFEE7034B1B680360034BAA
S11313301B68436010BDC04658E1FF1F2CE3FF1F2C
S113134070B504000D00002802D100F0D7FAFEE7C2
S1131350002902D100F0D2FAFEE700F0E3FA0F4BC5
S1131360002619682B685A1C13D00D4A2668106889
S11313706268864202D0012691420AD2881A012666
S1131380834206D9521AD3182B602000FFF7C6FFF8
S1131390002600F0D9FA300070BDC0462CE3FF1FD0
S11313A058E1FF1F0122014B1A60704754E3FF1FED
S11313B0054B01201B68002B04D0044B18684342E2
S11313C0584140007047C04660E1FF1F28E3FF1FFB
S11313D0F8B5041E2BD0164DC16A2B68DB6A9942FE
S11313E025D28369002B04DB12222B68DB6AD21A14
S11313F0826114234B430F486269C31807009A4261
S113140012D1261D3000FFF72AFC2B68D86A0A4B3C
S1131410E0621A68904200D91860142358433100DE
S11314203818FFF7F8FB02E02B68DB6AE362F8BDCB
S113143010E3FF1F94E1FF1F50E3FF1F70B5041E6C
S113144001D1002023E0436C002B02D100F056FAB6
S1131450FEE7C26A016C013B43648A42F1D0002B6F
S1131460EFD1051D2800FFF7FAFB1223206C1B1A8D
S1131470A361074BE0621A68904200D918601423F4
S11314805843044B29001818FFF7C5FB012070BD11
S113149050E3FF1F94E1FF1F044B1A68002A03D096
S11314A019684A6C01324A641868704710E3FF1FD8
S11314B0F8B500F037FA0F4C2568002D16D10E4F01
S11314C03800FFF79AFB0D4E3000FFF796FB0C4BEC
S11314D02A001F600B4B10210A201E60FFF7D1F970
S11314E02060002802D100F009FAFEE700F02CFA8F
S11314F0F8BDC04688E3FF1F5CE3FF1F70E3FF1FD6
S113150058E3FF1F8CE3FF1F10B541600061914257
S113151007D8D21A836901249A420DD2011D074BC0
S113152006E09A4202D20124994205D2044B011DDD
S11315301868FFF77CFB0024200010BD8CE3FF1F1C
S113154058E3FF1F1FB5FFF7B3FF0C4B1B68002BBD
S113155002D100F0D3F90FE011220023009280326F
S1131560039302930193FF3205490648FFF7C4FB36
S11315700028EED005B000BDFEE7C04688E3FF1F9B
S11315809B1D000039160000F0B5104D06002C68B4
S1131590170085B01A00201E15D0009101970296FD
S11315A005290BDCFFF704FF00230A9A022800D068
S11315B01A0069462868FFF78AF904E0002369469F
S11315C02000FFF716FA05B0F0BDC04688E3FF1F00
S11315D0F7B5174D2B681A68002A23D0DB68DC683E
S11315E01E68271D3800FFF73AFB636A20009847FE
S11315F0E369012BEDD1A369F3189E4206D263601F
S1131600246139002868FFF712FBE2E70021320069
S113161000910B002000FFF7B7FF0028D9D100F09C
S11316206DF9FEE7034A116813602960F7BDC046EF
S113163058E3FF1F8CE3FF1FF0B589B000245D4B16
S11316401B681A680392A24201D0DB681C68FFF78A
S113165057FCFFF75DFC584E05003368002798429D
S113166002D2FFF7B5FF01373560002F37D1039B56
S1131670002B28D0A54226D3FFF7D8FC4D4B1B687E
S1131680DB68DE68301DFFF7EAFAF369012B14D139
S1131690B3692A00E11830002300FFF735FF012861
S11316A00BD100973B00220039003000FFF76CFF9C
S11316B0002802D100F022F9FEE7736A300098474F
S11316C08427BF001AE03D4B611B1868FFF778FAC6
S11316D0FFF7ACFC0028F3D100F0A2F8F0E7FFF725
S11316E0A5FCEDE7049B002B04DA059B07990698FB
S11316F003939847049B0393002B09DA00232F4894
S11317001A0004A90068FFF7B8F90028EAD195E7A0
S1131710069C6369002B02D0201DFFF7A0FAFFF797
S1131720F7FB254B05001B680393984201D2FFF792
S11317304FFF214B1D60049B092BDFD801229A40E7
S1131740160013003E4026D1C722134205D19B0642
S1131750D4D52000FEF7D6FFD0E7059BA269200070
S113176099182A000393FFF7CFFE0128C6D1636AB4
S113177020009847E369012BC0D1A369059A00961C
S1131780D218310033002000FFF7FEFE0028B5D147
S113179000F0B4F8FEE70599A161002902D100F038
S11317A0ADF8FEE749192B002A002000FFF7ACFE34
S11317B0A4E7C04658E3FF1F84E3FF1F88E3FF1F2D
S11317C010B58024031F64041C60043B19600349A2
S11317D0043B1960143B40381A6010BD091900001D
S11317E0C02110B5094A090613680B431360084B5E
S11317F0C821186800F0E8F80022064B0138186088
S1131800054B1A60054B07321A6010BD20ED00E04D
S1131810C0E0FF1F14E000E018E000E010E000E08A
S11318208022044B52051A60BFF34F8FBFF36F8FB2
S11318307047C04604ED00E004480068006880F387
S1131840088862B600DFC0467047000008ED00E07B
S1131850C02110B50A4A090413680B43136000221F
S1131860084B1A60FFF7BCFF0722074B07481A60B2
S113187000F056FA002801D1FFF7DEFF002010BD6A
S113188020ED00E0C8E0FF1F10E000E090E3FF1F40
S1131890084B196808681030F0C8A046A946B2463B
S11318A0BB4680F309882038F0C871460D200143F7
S11318B00847C04610E3FF1FEFF309800E4B1A6878
S11318C020381060F0C044464D4656465F46F0C08E
S11318D008B572B6FFF76CFC62B60CBC11680868F8
S11318E01030F0C8A046A946B246BB4680F309882A
S11318F02038F0C81847C04610E3FF1FEFF31080EC
S113190072B670470020000010B5054B1B68013308
S113191002D0FFF7F3FFFEE7FFF7F0FFFEE7C04654
S1131920C8E0FF1F10B5FFF7E9FF044A136801334D
S11319301360BFF34F8FBFF36F8F10BDC8E0FF1F5D
S113194080F310887047000010B5044B1A68501ECD
S11319501860002801D1FFF7F3FF10BDC8E0FF1F96
S113196010B5FFF7CBFFFFF7DFFA002801D0FFF730
S113197057FF0020FFF7E4FF10BD0000FEE7FEE77D
S1131980FEE7FEE7FEE7FEE7FEE7FEE7FEE7FEE72B
S1131990FEE7FEE7FEE7FEE7FEE7FEE7FEE7FEE71B
S11319A0FEE7FEE7FEE7FEE7FEE7FEE7FEE7FEE70B
S11319B0FEE7FEE7FEE7FEE7FEE7FEE7FEE7FEE7FB
S11319C0FEE7FEE7FEE7C046002243088B4274D3DD
S11319D003098B425FD3030A8B4244D3030B8B422C
S11319E028D3030C8B420DD3FF22090212BA030C35
S11319F08B4202D31212090265D0030B8B4219D316
S1131A0000E0090AC30B8B4201D3CB03C01A524135
S1131A10830B8B4201D38B03C01A5241430B8B427D
S1131A2001D34B03C01A5241030B8B4201D30B0366
S1131A30C01A5241C30A8B4201D3CB02C01A52418D
S1131A40830A8B4201D38B02C01A5241430A8B4250
S1131A5001D34B02C01A5241030A8B4201D30B0239
S1131A60C01A5241CDD2C3098B4201D3CB01C01A53
S1131A70524183098B4201D38B01C01A524143095D
S1131A808B4201D34B01C01A524103098B4201D34B
S1131A900B01C01A5241C3088B4201D3CB00C01AB8
S1131AA0524183088B4201D38B00C01A5241430830
S1131AB08B4201D34B00C01A5241411A00D2014655
S1131AC0524110467047FFE701B5002000F006F8C8
S1131AD002BDC0460029F7D076E770477047C0467C
S1131AE0084B10B50400002B02D0002100E000BF19
S1131AF0054B1868836A002B00D09847200000F03B
S1131B0039F9C04600000000A41D00000E4B70B55A
S1131B1000251E000D4CE41AA410A54204D0AB000D
S1131B20F35898470135F8E700F026F9084B0025EB
S1131B301E00084CE41AA410A54204D0AB00F358CC
S1131B4098470135F8E770BD30E1FF1F30E1FF1F12
S1131B5030E1FF1F34E1FF1F10B5034B010018688B
S1131B6000F06CF810BDC0462CE1FF1F10B5034B0C
S1131B700100186800F016F810BDC0462CE1FF1FE4
S1131B80002310B59A4203D0CC5CC4540133F9E766
S1131B9010BD03008218934202D019700133FAE792
S1131BA07047000070B50500002944D00C1F23685D
S1131BB0002B00DAE418280000F0CCF81E4A136861
S1131BC01100002B02D16360146031E0A3420DD9EF
S1131BD02268A018834203D118685B6882182260C7
S1131BE063600C6024E0A24203D813005A68002A00
S1131BF0F9D11E689819A0420BD1216871185818A0
S1131C001960824214D110685268411819605A60F0
S1131C100EE0A04202D90C232B6009E02168601871
S1131C20824203D1106852684118216062605C608E
S1131C30280000F090F870BDF0E3FF1F032370B597
S1131C40CD1C9D43083506000C2D01D20C2501E066
S1131C50002D01DBA94202D90C23336048E0300097
S1131C6000F078F8234B1C681A002100002913D0D7
S1131C700B685B1B0DD40B2B02D90B60CC181EE038
S1131C808C4202D1636813601AE04B6863600C00F5
S1131C9016E00C004968E9E7174C2368002B03D1D0
S1131CA0300000F02BF820602900300000F026F806
S1131CB0431C18D00323C41C9C43A0420DD12560AF
S1131CC0300000F048F8200007220B30231D904319
S1131CD0C31A0ED05A42E2500BE0211A300000F031
S1131CE00DF8431CEBD10C233000336000F033F8C3
S1131CF0002070BDF0E3FF1FECE3FF1F002370B56D
S1131D00064C05000800236000F026F8431C03D1AC
S1131D102368002B00D02B6070BDC046F8E3FF1F82
S1131D20F0C041464A4653465C466D4676467EC000
S1131D302838F0C80020704710307CC89046994677
S1131D40A246AB46B54608C82838F0C8081C00D1DE
S1131D500120184770477047044A1368002B03D0CA
S1131D601818106018007047014BF9E7F4E3FF1FDF
S1131D7000E4FF1FFEE7C046F8B5C046F8BC08BC47
S1131D809E467047F8B5C046F8BC08BC9E467047EE
S1131D9052580054580049444C4500546D72205325
S10F1DA076630000CCE0FF1F0000000090
S10B1DACC4E6FF7F0100000002
S1131DB4006CDC02FFFFFFFFAAAAAAAA000000002D
S1131DC4000000000000000000000000000000000B
S1131DD400000000000000000000000000000000FB
S1131DE400000000000000000000000000000000EB
S1131DF400000000000000000000000000000000DB
S1131E0400000000000000000000000000000000CA
S1131E14000000000000000000000000CCE0FF1FF0
S10B1E24390400001104000060
S90300C13B
