:1000000000600020E9040000F9040000F904000089
:1000100000000000000000000000000000000000E0
:10002000000000000000000000000000210F0000A0
:100030000000000000000000490F0000F10F000068
:10004000F9040000F9040000F9040000F9040000BC
:10005000F9040000F9040000F9040000F9040000AC
:10006000F9040000F9040000F9040000F90400009C
:10007000F9040000F9040000F9040000F90400008C
:10008000F9040000F9040000F9040000F90400007C
:10009000F9040000F9040000F9040000F90400006C
:1000A000F9040000F9040000F9040000F90400005C
:1000B00009210000F9040000F9040000F90400001F
:10040000FFFFFFFFFFFFFFFFFFFFFFFFFEFFFFFFFD
:1004100010B5064C2378002B07D1054B002B02D0DA
:10042000044800E000BF0123237010BD7CE0FF1FE3
:1004300000000000F0330000084B10B5002B03D083
:100440000749084800E000BF07480368002B00D1B7
:1004500010BD064B002BFBD09847F9E700000000C9
:1004600080E0FF1FF033000078E0FF1F0000000075
:10047000164B002B00D1144B9D46402292029A1A33
:10048000924600218B460F461348144A121A02F076
:100490008EFE0F4B002B00D098470E4B002B00D048
:1004A00098470020002104000D000D48002802D0CC
:1004B0000C4800E000BF02F037FE2000290000F0E9
:1004C00065FC02F01BFEC046000008000060002032
:1004D00000000000000000007CE0FF1F3CE5FF1F63
:1004E000000000000000000072B602F0B9F902F04E
:1004F000BFF962B6FFF7BCFF00480047F9040000EF
:10050000F0C041464A4653465C466D4676467EC03C
:100510002838F0C80020704710307CC890469946B3
:10052000A246AB46B54608C82838F0C8081C00D11A
:10053000012018470023C25C0133002AFBD1581E5A
:100540007047000002B4714649084900095C49003F
:100550008E4402BC7047C04603B47146490840004F
:100560004900095A49008E4403BC704700224308E1
:100570008B4274D303098B425FD3030A8B4244D36B
:10058000030B8B4228D3030C8B420DD3FF220902AD
:1005900012BA030C8B4202D31212090265D0030B6C
:1005A0008B4219D300E0090AC30B8B4201D3CB0362
:1005B000C01A5241830B8B4201D38B03C01A5241A4
:1005C000430B8B4201D34B03C01A5241030B8B42A6
:1005D00001D30B03C01A5241C30A8B4201D3CB0291
:1005E000C01A5241830A8B4201D38B02C01A524176
:1005F000430A8B4201D34B02C01A5241030A8B4279
:1006000001D30B02C01A5241CDD2C3098B4201D390
:10061000CB01C01A524183098B4201D38B01C01A0E
:10062000524143098B4201D34B01C01A5241030985
:100630008B4201D30B01C01A5241C3088B4201D334
:10064000CB00C01A524183088B4201D38B00C01AE1
:10065000524143088B4201D34B00C01A5241411A08
:1006600000D20146524110467047FFE701B5002015
:1006700000F0F0F802BDC0460029F7D076E77047D9
:1006800003460B437FD4002243088B4274D30309F3
:100690008B425FD3030A8B4244D3030B8B4228D394
:1006A000030C8B420DD3FF22090212BA030C8B42BA
:1006B00002D31212090265D0030B8B4219D300E05A
:1006C000090AC30B8B4201D3CB03C01A5241830BDF
:1006D0008B4201D38B03C01A5241430B8B4201D38F
:1006E0004B03C01A5241030B8B4201D30B03C01AB8
:1006F0005241C30A8B4201D3CB02C01A5241830A32
:100700008B4201D38B02C01A5241430A8B4201D360
:100710004B02C01A5241030A8B4201D30B02C01A8A
:100720005241CDD2C3098B4201D3CB01C01A5241F1
:1007300083098B4201D38B01C01A524143098B427A
:1007400001D34B01C01A524103098B4201D30B0163
:10075000C01A5241C3088B4201D3CB00C01A524188
:1007600083088B4201D38B00C01A524143088B424D
:1007700001D34B00C01A5241411A00D201465241E6
:10078000104670475DE0CA0F00D04942031000D305
:100790004042534000229C4603098B422DD3030A5A
:1007A0008B4212D3FC22890112BA030A8B420CD36A
:1007B000890192118B4208D3890192118B4204D393
:1007C00089013AD0921100E08909C3098B4201D313
:1007D000CB01C01A524183098B4201D38B01C01A4D
:1007E000524143098B4201D34B01C01A52410309C4
:1007F0008B4201D30B01C01A5241C3088B4201D373
:10080000CB00C01A524183088B4201D38B00C01A1F
:100810005241D9D243088B4201D34B00C01A5241F6
:10082000411A00D20146634652415B10104601D383
:100830004042002B00D54942704763465B1000D30D
:10084000404201B5002000F005F802BD0029F8D0B3
:1008500016E770477047C0460A4B10B51A68002A61
:1008600001D1094A1A601A6808491018884206D945
:1008700002F03EFC0C2303600120404201E01860BE
:10088000100010BD98E0FF1F40E5FF1F400500204D
:1008900080200649064A00058B5803438B500C21E3
:1008A000044A93680B4393607047C046007004404D
:1008B0003C10000000B0034003228021044B1A606A
:1008C0001A688A43FCD0024B186980B27047C04650
:1008D00000B0034010B52024074A084BD0582043ED
:1008E000D050D1582143D1500022054B9A605A6014
:1008F000044A1A6010BDC046007004403810000061
:1009000000500440804031008021094B00075860AE
:100910005A68C9030A4304215A601868044A084205
:10092000FBD0042113680B4313605068C0B27047BA
:10093000005004400023834202DAC0460133FAE744
:100940007047000070B50C0010212B4B16001D00E5
:100950009A780A439A709A7849180A439A701871DB
:10096000EB785BB2002BFBDA96204000FFF7E2FF4A
:100970009620214B40001E71FFF7DCFFEA781E4BEA
:1009800052B2002AFADA04219A780A439A701C714A
:10099000EB78194C5BB2002BFADA96204000FFF797
:1009A000C9FF1022A3789343A3702379EB78124CEC
:1009B0005BB2002BFADA96204000FFF7BBFF08225B
:1009C0009620A37840001343A3702679FFF7B2FF67
:1009D0001022A378F6B21343A3702023A2789A437F
:1009E000A270E978044A1942FBD0082193783000BC
:1009F0008B43937070BDC0460060064070B50E001A
:100A00001021164B15001C009A780A439A709A78A8
:100A100049180A439A701871E3785BB2002BFBDA2D
:100A200096204000FFF786FF0C4B1E71E3785BB207
:100A3000002BFBDA96204000FFF77CFF074B1D716F
:100A4000E378064D5BB2002BFADA96204000FFF700
:100A500071FF2022AB789343AB7070BD00600640FD
:100A60008020124B124980015A5830B50243402071
:100A70005A501049A0255A58ED0002435A500022FE
:100A80000D4B0E491A705A709A70DA705A719A7139
:100A9000DA710C6E2C430C66486E284348660821B8
:100AA0005970B83199701A7130BDC0460070044059
:100AB00038100000341000000060064000D00440F0
:100AC000002802D00138C046FAE7704770B54025CB
:100AD00000240920FFF718FF013D24180348FFF701
:100AE000EFFF002DF5D1200070BDC0468813000037
:100AF00070B540250024FFF7DFFE013D24180348B0
:100B0000FFF7DEFF002DF6D1A00970BD88130000AD
:100B1000134B1A69134B12071ED51A78002A1DD0E1
:100B2000002201211A70104A5379594051710F4B1C
:100B30000F4A07D010680F490140116020211A6840
:100B40000A4307E0802011688005014311602021DD
:100B50001A688A431A6001E001221A707047C04681
:100B600080F00F4033E1FF1F2CE1FF1FC0F00F406A
:100B700000F10F40FFFFFFDF10B5FFF79DFE074BB1
:100B8000074A1B889B18984204DD0122054B064842
:100B90009A7100E0054801F003FC10BD7CE2FF1FE4
:100BA000C40900002CE1FF1F503300005A3300003D
:100BB000F0B589B000F038FE0790012107A800F0D9
:100BC00029FFFFF7A5FFFFF7D7FF5E4B5E4A1B78B3
:100BD0005E4E5BB2D1565E4A5E4F12885E4D521A2F
:100BE0005B495E4C0A805E4A3A20D1565D4A1288C3
:100BF000521A5C490A805C4AD1565C4A1288521AE1
:100C00005A490A805A003168D25B8A1A3260584ABF
:100C10002968D25C8A1A2A60564A3B21D35C226832
:100C2000D31A01222360FFF78DFE032243B23B213A
:100C30003A200193FFF786FE05223B2143B23A207A
:100C40000293FFF77FFE43B209200393FFF75CFE98
:100C500004900A20FFF758FE0590FFF72DFE694625
:100C6000384B394A1B7809795BB2D15469463C4A02
:100C7000097AD15469463C4A097BD1545A00D05371
:100C80006A46177C3A4AD7546A46127D94466146B2
:100C9000384AD1542E4A01991288013352182C49EE
:100CA0005BB20A802F4A0299128852182D490A8095
:100CB0002E4A0399128852182C490A80326810185B
:100CC0002A683060BF1822682F6016002A4A6644DE
:100CD0002660134004D54022013B524213430133A6
:100CE000184AB81B137002F0FFF9244BBF2823DD0C
:100CF0002D6820682249234A854209DD0C68224874
:100D0000204008602020116801431160012209E0A1
:100D100080240868A40520430860202011688143CE
:100D2000116000225979002909D10121002A01D13D
:100D3000197042E7597040E700221A705A701A7110
:100D40003BE7C0469CE0FF1F3CE2FF1FA0E0FF1F07
:100D500080E2FF1FA4E0FF1F34E1FF1F28E1FF1F17
:100D600079E1FF1F24E1FF1FB9E1FF1F3AE2FF1FF6
:100D700038E1FF1FF9E1FF1F3F0000802CE1FF1F5A
:100D800000F10F40C0F00F40FFFFFFDF7FB52026CE
:100D9000244D01F0BFF9FFF77BFDFFF79BFDFFF747
:100DA0005FFE2A68204B214C13402B6023682048AB
:100DB000B343236001F0F4FA0920FFF787FE1D4BCF
:100DC00018700A20FFF782FE1B4B1870FFF790FE89
:100DD00080221A4B920518802B68194813432B6008
:100DE0002368B343236001F0DBFA0D223B213A2054
:100DF000FFF7A8FD0100134801F0D2FA01222A21D1
:100E00003A20FFF7FBFD0023022203930293019394
:100E100000920D49C6320D4800F0FAFB00F0CEFCFE
:100E2000FEE7C04600F10F40FFFFFFDFC0F00F40BC
:100E30006533000078E1FF1F7EE2FF1F7CE2FF1FA9
:100E400077330000883300009E330000B10B0000B0
:100E500010B58024031F64041C60043B196003491F
:100E6000043B1960143B40381A6010BD990F000014
:100E7000C0210A4A0906136810B50B431360084BDA
:100E8000C8211868FFF772FB0022064B0138186072
:100E9000054B1A60054B07321A6010BD20ED00E0CB
:100EA00008E0FF1F14E000E018E000E010E000E0C0
:100EB0008022044B52051A60BFF34F8FBFF36F8F30
:100EC0007047C04604ED00E004480068006880F305
:100ED000088862B600DFC0467047000008ED00E0F9
:100EE000C0210B4A0904136810B50B43136000229C
:100EF000084B1A60FFF7BCFF0722074B07481A6030
:100F0000FFF7FEFA002801D1FFF7DEFF002010BD39
:100F100020ED00E000E0FF1F10E000E084E2FF1F92
:100F2000084B196808681030F0C8A046A946B246B8
:100F3000BB4680F309882038F0C871460D20014374
:100F40000847C04698E4FF1FEFF309800E4B1A686C
:100F500020381060F0C044464D4656465F46F0C00B
:100F600008B572B600F0C8FD62B60CBC116808681E
:100F70001030F0C8A046A946B246BB4680F30988A7
:100F80002038F0C81847C04698E4FF1FEFF31080E0
:100F900072B6704700200000054B10B51B68013386
:100FA00002D0FFF7F3FFFEE7FFF7F0FFFEE7C046D2
:100FB00000E0FF1F10B5FFF7E9FF044A1368013393
:100FC0001360BFF34F8FBFF36F8F10BD00E0FF1FA3
:100FD00080F3108870470000044B10B51A68501E4B
:100FE0001860002801D1FFF7F3FF10BD00E0FF1FDC
:100FF00010B5FFF7CBFF00F023FC002801D0FFF76E
:1010000057FF0020FFF7E4FF10BD10B5040000F00B
:1010100003FC200002F0AEF8040000F093FC200076
:1010200010BD10B5041E06D000F0F6FB200002F043
:10103000ABF800F087FC10BD0300012208334360C9
:10104000C360036100235242826003607047002343
:101050000361704743689A684B608A609A68516080
:1010600099600368086101330360704703000A68F0
:1010700030B50833541C01D1036905E05C6825686C
:10108000AA4201D32300F9E75A684A6091608B6055
:101090005960036808610133036030BD41688268AC
:1010A00003698A60826851605968884200D15A6039
:1010B000002202611A68501E1860704770B5150052
:1010C000026C0400002A07D10568002D2AD140686F
:1010D00000F058FE656026E0002D0DD1806802F01A
:1010E0005DF8A368226C9B186268A360934219D3D1
:1010F00023682800A36016E0C06802F04FF8236C54
:10110000E2685B422168D218E2608A4202D26268D9
:10111000D318E360022D05D1A36B002B02D0A36B83
:10112000013BA3630020A36B0133A36370BD0300E5
:101130001A6C10B50800002A0AD0D9685C688918B2
:10114000D960A14201D31968D960D96802F026F8A4
:1011500010BD10B50400FFF72DFFA36C002B0EDDB2
:10116000636A002B0BD02000243000F03FFD0028E4
:1011700001D000F0BBFDA36C013BA364EDE70123AC
:101180005B42A364FFF728FFFFF714FF636C002B9B
:101190000EDD2369002B0BD02000103000F026FD5F
:1011A000002801D000F0A2FD636C013B6364EDE711
:1011B00001235B426364FFF70FFF10BD70B50400AD
:1011C0000D00002802D1FFF7E1FEFEE7FFF7F2FE77
:1011D000216CE36B22684B43D0185B1AD318E36091
:1011E0000123606000205B42A063A2606364A3648B
:1011F00085420BD12369834210D02000103000F0CB
:10120000F5FC01280AD1FFF753FE07E0200010305B
:10121000FFF712FF20002430FFF70EFFFFF7DCFE80
:10122000012070BD70B506000D00002802D1FFF747
:10123000ADFEFEE70020814202D00800704301307D
:101240004C30FFF7E2FE041E07D0002D01D12060D4
:1012500006E003004C33036002E0FFF797FEFEE771
:10126000E663256401212000FFF7A8FF200070BD80
:10127000F0B585B00400009101921D00002802D154
:10128000FFF784FEFEE7009B002B05D1036C002BCB
:1012900002D0FFF77BFEFEE7022D05D1E36B012BA9
:1012A00002D0FFF773FEFEE700F026FD00270028BE
:1012B00035D1019F002F32D067E0002F02D102A864
:1012C00000F0D0FCFFF788FE00F0A6FAFFF772FEF0
:1012D000636C013301D100236364A36C013301D13A
:1012E0000023A364FFF778FE01A902A800F0CCFC5C
:1012F000002843D1FFF75EFEA76BE66BFFF76CFE9D
:10130000B74235D120000199103000F031FC2000A7
:10131000FFF71FFF00F016FB002826D00127FFF77C
:1013200049FEA36BE26B934201D3022D16D12A0032
:1013300000992000FFF7C2FE636A002B08D020004E
:10134000243000F053FC012804D1FFF7B1FD01E087
:101350000028FAD1FFF740FE012019E0019E002E7F
:10136000ABD1FFF739FE300012E0FFF7A1FDD5E762
:101370002000FFF7EEFE00F0E5FACFE72000FFF7D0
:10138000E8FE00F0DFFA002002E0FFF7FFFDFEE7D5
:1013900005B0F0BDF7B50400009117001E0000284D
:1013A00002D1FFF7F3FDFEE7009B002B05D1036C94
:1013B000002B02D0FFF7EAFDFEE7022E05D1E36B1A
:1013C000012B02D0FFF7E2FDFEE7FFF7DFFDA36B85
:1013D000E26B0190934202D30025022E19D1320014
:1013E00000992000FFF76AFEA36C01330DD1636AF8
:1013F000002B0DD02000243000F0F8FB002807D08F
:10140000002F05D001253D6003E0A36C0133A364E8
:1014100001250198FFF7DCFD2800FEBDF0B585B081
:1014200004000F0001920093002802D1FFF7AEFDE7
:10143000FEE7002905D1036C002B02D0FFF7A6FDC3
:10144000FEE700F059FC002600283ED1019E002E48
:101450003BD081E0002E02D102A800F003FCFFF790
:10146000BBFD00F0D9F9FFF7A5FD636C013301D195
:1014700000236364A36C013301D10023A364FFF74D
:10148000ABFD01A902A800F0FFFB00285DD1FFF72A
:1014900091FDA56BFFF7A0FD002D50D12368002B17
:1014A00006D1FFF787FD606800F036FCFFF794FD7A
:1014B00020000199243000F05BFB2000FFF749FE7B
:1014C00000F040FA002837D00126FFF773FDA36B28
:1014D000002B2AD039002000E568FFF728FE009B8A
:1014E000002B14D1A36B013BA3632368002B02D113
:1014F00000F076FC60602369002B12D020001030D1
:1015000000F074FB01280CD1FFF7D2FC09E0636AFC
:10151000E560002B05D02000243000F067FB002898
:10152000F2D1FFF759FD012019E0019D002D91D165
:10153000FFF752FD280012E0FFF7BAFCC4E72000D5
:10154000FFF707FE00F0FEF9BEE72000FFF701FEFF
:1015500000F0F8F9002002E0FFF718FDFEE705B003
:10156000F0BD70B504000D00FFF724FD636C01337E
:1015700001D100236364A36C013301D10023A36470
:10158000FFF72AFDA36B002B04D120002900243093
:1015900000F012FB2000FFF7DCFD70BD074A136866
:1015A0001968074B002902D10122524203E0126858
:1015B000D268D26852681A607047C046E4E2FF1FE2
:1015C00004E0FF1F0D4B10B51A68040050600C4A70
:1015D0001268904206D20B4A106819680431FFF76E
:1015E00045FD0AE0084A106819680431FFF73EFD1E
:1015F000064B1A68944200D21C6010BD98E4FF1F8D
:10160000B4E4FF1FB8E4FF1FE4E2FF1F04E0FF1F84
:10161000F7B50600009117000193002802D1FFF7EB
:10162000B5FCFEE7089B112B02D9FFF7AFFCFEE7E4
:101630000A9D002D05D19000FFF7E7FC051E00D1A3
:101640009EE05020FFF7E1FC041E0DD0BF000563B3
:101650003A00A521280001F0AAFD236B043FDF1901
:1016600007239F43002306E02800FFF7DAFC87E00A
:1016700001330C2B08D0009AD15C1A003432A154EB
:10168000009AD25C002AF3D1230000253F331D705D
:10169000089B6564E3622364231D18000093FFF731
:1016A000D6FC20001830FFF7D2FC1223089A2461E0
:1016B0009B1AA36123004C336462A564019A1D70D8
:1016C00031003800FFF7C4FB099B2060AB4200D01B
:1016D0001C60FFF76FFC2C4B2C4D1A6801321A600E
:1016E0002E68002E22D12C601B68012B28D1B42734
:1016F0007F00274B98191436FFF79EFCBE42F8D1A5
:10170000244F3800FFF798FC234E3000FFF794FC7D
:101710002248FFF791FC2248FFF78EFC2148FFF793
:101720008BFC214B1F60214B1E6009E0204B1B6886
:10173000002B05D12B68089ADB6A9A4200D32C60F3
:101740001C4AE06A1368013313601B4B1A6890420D
:1017500000D91860142358430D4B00991818FFF74F
:1017600079FCFFF739FC124B01241B68002B09D0D0
:101770002B68089ADB6A9A4204D9FFF799FB01E0CB
:10178000012464422000FEBDC0E4FF1F98E4FF1F57
:101790001CE3FF1FF0E2FF1F04E3FF1F9CE4FF1F99
:1017A00084E4FF1FC4E4FF1FE4E2FF1FB8E4FF1F4F
:1017B000E8E2FF1FBCE4FF1FD8E4FF1F30B50024A0
:1017C00085B003940294019400942300C8220E492A
:1017D0000E48FFF71DFF050001280DD100F056FB54
:1017E0000500012808D1FFF7D1FB094B1D60094B0B
:1017F0001C60FFF775FB04E0002D02D1FFF7C6FB6C
:10180000FEE705B030BDC046A8330000911A0000C5
:10181000E8E2FF1FB4E4FF1F024A136801331360BC
:101820007047C046B0E4FF1F10B5FFF7C3FB034B82
:101830001C68FFF7D1FB200010BDC046B4E4FF1FB9
:10184000354BF7B51B68002B38D1344B1A68013281
:101850001A601F68002F12D1314B1A681268002AD3
:1018600002D0FFF793FBFEE72E4A19681068186054
:1018700011602D4A136801331360FFF78FFE2B4E62
:10188000002533689F420ED3254B1A681268002A40
:1018900002D101235B4205E01B68DB68DC686368FA
:1018A0009F4216D23360224B1B68DA6A14235343DB
:1018B000204AD358012B06D9012504E000251E4AF1
:1018C0001368013313601D4B1B68002B22D00125C8
:1018D00020E0231D18000193FFF7E0FBA36A002B13
:1018E00003D020001830FFF7D9FB154BE06A1A68C7
:1018F000904200D91860142358430E4B211D18182C
:10190000FFF7A8FB0A4BE26A1B68DB6A9A42BBD36B
:101910000125B9E72800FEBDB0E4FF1FB4E4FF1FB6
:10192000E4E2FF1FB8E4FF1FE0E2FF1F04E0FF1F37
:1019300098E4FF1F1CE3FF1F18E3FF1FDCE4FF1FF9
:10194000D8E4FF1FF8B52B4C2368002B02D1FFF71A
:101950001DFBFEE7FFF72EFB2368013B2360236896
:10196000002B01D0002441E0234B1B68002BF9D051
:1019700014260127214B1A68002A1ED0DB68DC6878
:101980002000251D1830FFF789FB2800FFF786FB94
:101990001B4BE06A1A68904200D918607043194BDB
:1019A00029001818FFF756FB174BE26A1B68DB6A21
:1019B0009A42DFD3154B1F60DCE7154C2368002BE0
:1019C00006D1124B1C68012CCCD1FFF771FA0DE047
:1019D00001252368002BF4D0FFF732FF002801D047
:1019E0000A4B1D602368013B2360F2E7FFF7F4FA1E
:1019F0002000F8BDB0E4FF1FC0E4FF1F9CE4FF1F00
:101A0000D8E4FF1F1CE3FF1F98E4FF1FDCE4FF1F67
:101A100018E3FF1F70B506000C00002802D1FFF785
:101A2000B5FAFEE7002902D1FFF7B0FAFEE7154B41
:101A30001D68002D02D0FFF7A9FAFEE7FFF7ECFEC4
:101A4000114B31681A6864188A4203D22B00A142F4
:101A500006D902E00123A14202D8A2429B415B4287
:101A60003460002B07D0094B18680430FFF716FBD1
:101A70002000FFF7A7FDFFF765FF002801D1FFF762
:101A800017FA70BDB0E4FF1FB4E4FF1F98E4FF1F16
:101A900070B5154C2368002B1ED0FFF7BDFE134D0B
:101AA0002E68FFF74FFF002EF3D0FFF783FAEB68A5
:101AB000DD68281DFFF7F2FA0D4A1368013B136039
:101AC0002368013B2360FFF787FA286BFFF7A9FA29
:101AD0002800FFF7A6FADCE7064B1B68012BD8D9D4
:101AE000FFF7E6F9D5E7C046ECE2FF1F84E4FF1FED
:101AF000C0E4FF1F1CE3FF1F184B10B51A68184BFA
:101B0000002A01D0012227E014241A601548164A41
:101B10001368010063431B58002B09D11368002B85
:101B200002D1FFF733FAFEE71368013B1360EFE7DA
:101B3000142314686343C218506808334068CB18F4
:101B40005060984201D143685360142213006343EC
:101B5000CB185B68DA68054B1A6010BDB0E4FF1F54
:101B6000DCE4FF1F1CE3FF1FD8E4FF1F98E4FF1F06
:101B700070B50D00002802D1FFF708FAFEE70B4C04
:101B800021681831FFF772FA20680430FFF786FAEF
:101B90006B1C05D1216806480431FFF75BFA04E0AD
:101BA000044B18682818FFF70DFD70BD98E4FF1F5F
:101BB000C4E4FF1FB4E4FF1F70B50C00002802D17D
:101BC000FFF7E4F9FEE7074D29681831FFF742FAFD
:101BD00028680430FFF762FA034B18680019FFF712
:101BE000F1FC70BD98E4FF1FB4E4FF1FC36870B53B
:101BF000DC68002C02D1FFF7C9F9FEE72500183593
:101C00002800FFF74BFA114B1B68002B0FD1251D45
:101C10002800FFF743FA0E4BE06A1A68904200D999
:101C20001860142358430B4B2900181801E02900B1
:101C30000948FFF70FFA094BE26A1B680020DB6ACC
:101C40009A4202D9064B0130186070BDB0E4FF1F04
:101C5000D8E4FF1F1CE3FF1F9CE4FF1F98E4FF1F55
:101C6000DCE4FF1F10B5002802D1FFF78FF9FEE773
:101C7000034B1B680360034B1B68436010BDC046E9
:101C8000E0E2FF1FB4E4FF1F70B504000D00002860
:101C900002D1FFF77BF9FEE7002902D1FFF776F9C1
:101CA000FEE7FFF787F90F4B002619682B685A1CCF
:101CB00013D00D4A266810686268864202D0012659
:101CC00091420AD2881A0126834206D9521AD318A1
:101CD0002B602000FFF7C6FF0026FFF77DF93000DC
:101CE00070BDC046B4E4FF1FE0E2FF1F0122014BBC
:101CF0001A607047DCE4FF1F054B01201B68002BB6
:101D000004D0044B18684342584140007047C04615
:101D1000E8E2FF1FB0E4FF1FF8B5041E2BD0164DFC
:101D2000C16A2B68DB6A994225D28369002B04DBE8
:101D300012222B68DB6AD21A826114234B430F48AC
:101D40006269C31807009A4212D1261D3000FFF7BE
:101D5000A5F92B68D86A0A4BE0621A68904200D94C
:101D600018601423584331003818FFF773F902E064
:101D70002B68DB6AE362F8BD98E4FF1F1CE3FF1FDA
:101D8000D8E4FF1F70B5041E01D1002023E0436C8E
:101D9000002B02D1FFF7FAF8FEE7C26A016C013BA3
:101DA00043648A42F1D0002BEFD1051D2800FFF7D4
:101DB00075F91223206C1B1AA361074BE0621A68A5
:101DC000904200D9186014235843044B2900181876
:101DD000FFF740F9012070BDD8E4FF1F1CE3FF1F8F
:101DE000044B1A68002A03D019684A6C01324A640D
:101DF0001868704798E4FF1FF8B5FFF7DBF80F4C41
:101E00002568002D16D10E4F3800FFF715F90D4E3D
:101E10003000FFF711F90C4B2A001F600B4B10210B
:101E20000A201E60FFF7FEF92060002802D1FFF7AC
:101E3000ADF8FEE7FFF7D0F8F8BDC04610E5FF1F8C
:101E4000E4E4FF1FF8E4FF1FE0E4FF1F14E5FF1FB9
:101E500010B541600061914207D8D21A836901240C
:101E60009A420DD2011D074B06E09A4202D201248C
:101E7000994205D2044B011D1868FFF7F7F80024BA
:101E8000200010BD14E5FF1FE0E4FF1F1FB5FFF7A2
:101E9000B3FF0C4B1B68002B02D1FFF777F80FE064
:101EA0001122002300928032039302930193FF32A8
:101EB00005490648FFF7ACFB0028EED005B000BD91
:101EC000FEE7C04610E5FF1FAD330000811F000094
:101ED000F0B5104D06002C68170085B01A00201EC2
:101EE00015D000910197029605290BDCFFF704FF3E
:101EF00000230A9A022800D01A0069462868FFF7D2
:101F0000B7F904E0002369462000FFF743FA05B063
:101F1000F0BDC04610E5FF1FF7B5174D2B681A68D6
:101F2000002A23D0DB68DC681E68271D3800FFF715
:101F3000B5F8636A20009847E369012BEDD1A369E6
:101F4000F3189E4206D26360246139002868FFF7C7
:101F50008DF8E2E70021320000910B002000FFF72E
:101F6000B7FF0028D9D1FFF711F8FEE7034A11683F
:101F700013602960F7BDC046E0E4FF1F14E5FF1FB2
:101F8000F0B589B000245D4B1B681A680392A24229
:101F900001D0DB681C68FFF73FFCFFF745FC584E9B
:101FA000050033680027984202D2FFF7B5FF0137DA
:101FB0003560002F37D1039B002B28D0A54226D3B4
:101FC000FFF7C0FC4D4B1B68DB68DE68301DFFF778
:101FD00065F8F369012B14D1B3692A00E1183000C8
:101FE0002300FFF735FF01280BD100973B002200AB
:101FF00039003000FFF76CFF002802D1FEF7C6FF62
:10200000FEE7736A300098478427BF001AE03D4B13
:10201000611B1868FFF7A5FAFFF794FC0028F3D1BD
:10202000FEF746FFF0E7FFF78DFCEDE7049B002B82
:1020300004DA059B0799069803939847049B03933A
:10204000002B09DA00232F481A0004A90068FFF7C3
:10205000E5F90028EAD195E7069C6369002B02D0D8
:10206000201DFFF71BF8FFF7DFFB254B05001B6862
:102070000393984201D2FFF74FFF214B1D60049B51
:10208000092BDFD801229A40160013003E4026D1CA
:10209000C722134205D19B06D4D52000FEF7C1FF0D
:1020A000D0E7059BA269200099182A000393FFF747
:1020B000CFFE0128C6D1636A20009847E369012B4F
:1020C000C0D1A369059A0096D218310033002000D0
:1020D000FFF7FEFE0028B5D1FEF758FFFEE7059991
:1020E000A161002902D1FEF751FFFEE749192B003B
:1020F0002A002000FFF7ACFEA4E7C046E0E4FF1F83
:102100000CE5FF1F10E5FF1F10B5002000F0CCFD0F
:1021100010BD00008020204A204B8000D15810B50F
:1021200001438020D150D158000101438020D1507B
:10213000D158400101438020D150D1588001014342
:102140000420D150164BFF30D9680143D9601A6B77
:10215000144902431A63144B80205A6980055A615E
:102160005A695A618022114B52005A674B690343E6
:102170004B6120210E4B00205A610E4A53690B43DC
:10218000536100F0E1FC042000F0DEFC00F038F8C0
:1021900000F05EF810BDC04600700440381000002A
:1021A00000B0044000F10F4080F00F4000D0044028
:1021B00000C00440C0F00F40002805D18023034A2E
:1021C0009B001360024A13607047C0460490145489
:1021D000089014541FB510220021684600F0E7FF54
:1021E000064B6A4600930223694653720020013B66
:1021F000937200F0D1FB05B000BDC04600127A001A
:102200002A2270B500250C4B1A700C4B1D600C4B2C
:102210001D60FFF7DFFF0B4C2000103000F00EFCBC
:10222000210028000E3100F0A3FB200000F05EFB2F
:10223000054A064B1A6070BD00E0074048901454F0
:102240004C901454B6330000006CDC0208E0FF1F11
:1022500010B50020FFF7B0FF8022E121044BD2042B
:102260001A6049020F22002000F018F810BDC04685
:1022700004800C5D13B56B46D91D074B08701A78A6
:10228000002A05D058689C680122A047002001E080
:102290000120404216BDC04618E5FF1FF0B5364B81
:1022A00087B01E78070001911D000320002E60D129
:1022B000F9B20091694609781A7059700F2A33D023
:1022C0000120102A55D103AB9C4619002B4A19CA8C
:1022D00019C16346BA00D45838006C6000F044FC61
:1022E000380000F029FC019A0100200000F0A6FE51
:1022F0009022A31C520513431E702000310000F0F1
:10230000B7FE94235B0523431E708C2308220334FD
:102310005B0523431A7088235B051C430423237049
:10232000174BAB60174B1FE0174C38005C6000F098
:1023300013FC380000F0E6FB019A0100200000F0D9
:102340001BFC124B20001E70310000F072FC942325
:1023500008225B051C430E4B26701A700D4B043A85
:102360001A700D4BAB600D4BEB606B4600201B7879
:102370006B7007B0F0BDC04618E5FF1F4433000086
:102380008F300000B130000000A0064002A00652CD
:1023900003A0865103A00651512C0000712C0000AF
:1023A0000FB41FB50A4B1B78002B0AD0012207ABD4
:1023B000039300935242069B0649002000F062F806
:1023C00001E00120404205B008BC04B01847C046F7
:1023D00018E5FF1F75220000F7B51F0008AB0500C8
:1023E000187800232B706C1C0E689A4219D09E42FC
:1023F00009D130236B702F3B2EE023700600631B46
:102400000134002828D030003900FEF739F90300E4
:102410007B43F61A33003033002EEEDA30239B1B59
:10242000EBE7002EE5D06123002800D0203B0A3BDB
:10243000019330003900FEF799F803007B43F61A48
:10244000019B9B19092E01D83300303323700600FD
:10245000631B01340028ECD11800FEBDF7B506005F
:102460000C001D00FF270192019B9C4209DA3000FD
:10247000089B0999384098472B68013401332B6039
:10248000F2E7F7BDF0B599B0089300230C93130061
:102490000700039109921E9C013301D0130000E054
:1024A000B34B0A93089B1878002800D1D0E139007B
:1024B000252800D0C1E100260425089B15385A784C
:1024C000591C2B2A02D102231E4304E02B2A08D8D0
:1024D000202A02D12E430B00F1E7232A09D106431B
:1024E000F9E72D2A01D10123EEE7302A01D1082393
:1024F000EAE700220A2004925A78591C1500303D60
:10250000092D06D8049B4343303BD31804930B009A
:10251000F2E72E2A05D10B005A780131303A092A08
:10252000F9D95A78682A06D06C2A08D04C3A514218
:102530004A419B1809E09A78682A05D102E09A7806
:102540006C2A01D1023300E001335A1C5B780892F7
:1025500018005838202800D96DE1FDF7FDFF210053
:102560006C016C016C016C016C016C016C016C0103
:102570006C01D9002F0123006C016C016C016C010E
:1025800023006C016C016C016C016601D100E1005B
:102590006C016C013A016C01EA006C016C01630092
:1025A000012340E0231D0593236801220D9301239D
:1025B0000DA900930FA80933FFF70EFF0FAB1B18EF
:1025C00007930D9B0400002B02DA01342D2509E04E
:1025D0000225354002D001342B2503E0730701D5D5
:1025E0002025013408231E420AD0002D00D1B3E07B
:1025F000039B3900280098470C9B01330C93ABE0F8
:1026000001231E4208D1039B01970093049A0CAB4F
:1026100021002020FFF722FF002D00D1B6E0390075
:102620002800BBE000230693231D059323680022A6
:102630000E93069B0EA900930FA81023FFF7CCFE64
:1026400008250FAB1B180793040035401023002DFD
:102650001DD000251E420FD0039B39003020984723
:10266000069B7820AB4200D020380125039B39001F
:1026700098470C9B02330C93039B21000093019716
:102680000CAB049A3020FFF7E9FE049C23E0012202
:10269000164220D133400B9300D002340025039B17
:1026A00001970093049A0CAB21002020FFF7D6FE7F
:1026B0000B9BAB420FD0039B390030209847069B01
:1026C0007820AB4200D020380125039B3900984781
:1026D0000C9B02330C93F30658D5002D56D1039B67
:1026E000390030209847069B7820002B00D02038F6
:1026F000039B390098470C9B023402330C9345E04E
:10270000231D059323680E9301230093073317E0DD
:10271000231D059323680E9301230093DB180FE01C
:1027200023000833059363680E93012300930F334E
:1027300006E0231D059323680E93012300930933BC
:1027400000220EA90FA8FFF747FE0FAB1B18079337
:10275000082304001E420DD0039B21000093019723
:102760000CAB049A3020FFF779FE049C0EE0C046C3
:10277000FEFFFF7F01231E4208D1039B010000934F
:1027800001970CAB049A2020FFF768FE079B18788E
:10279000002809D03900079B013B0793039B98470A
:1027A0000C9B01330C93F1E701231E424BD0039B9A
:1027B00001970093049A0CAB210032E02068231D9E
:1027C0000593C0B2039B390098470C9B01330C93CF
:1027D00039E0231D24680593002C34D02000FDF738
:1027E000A9FE012305001E4008D1039B01000093B0
:1027F00001970CAB049A2020FFF730FE20780028C8
:1028000007D0039B390098470C9B013401330C938C
:10281000F4E7002E17D02900039B049A0093019738
:102820000CAB2030FFF71AFE0DE0231D05930C9A28
:1028300023681A6007E039001800039B98470C9B37
:10284000059401330C93089B059C0133089329E6FA
:102850000A9B0998002B00D00C9819B0F0BDC04617
:1028600088230021014A5B01D15070470070044069
:10287000154B164810B5190083420CD00023144A9A
:10288000920892009A4203D0C458CC500433F9E71E
:10289000104B996001E00F4A936000230E4A0F49E4
:1028A0000F48891A8B4203D0D45CC4540133F9E732
:1028B000002318000B4A0C49891A994203D0D418F6
:1028C00020700133F9E710BD000000000000000097
:1028D0000000000000ED00E0183400009434000017
:1028E00000E0FF1F7CE0FF1F3CE5FF1FF7B51C4D1C
:1028F00004000021280000F0EDF903222B78382095
:102900001A408023A1795B42C900134301400B4365
:10291000DBB2144A2B701378002BFCD1124A1378C7
:10292000114F022BFBD1227B0D4D00920022E37A46
:102930001100280000F028FB061E0ED10B4B1D4392
:1029400028703B78032BFCD1A378002B05D0E378CB
:1029500062792179024800F075FA3000FEBDC04668
:10296000004006400640065206400E510000081383
:10297000084B8000C2589C200B784005DB011043B7
:10298000DBB2037094235B051A434B785B01DBB227
:1029900013707047CC33000070B58B7A05000C00C3
:1029A000012B14D1097962794B1E9941531E9A412A
:1029B000A379C900581E8341E079920001435B006E
:1029C000114319430F4BAA00D05800F021FB2100FE
:1029D00028000B31FFF7CCFFA37A227A617A0A48EC
:1029E00000F0C0FAA37A012B06D1E37A002B03D0C2
:1029F000064A1378002BFCD02268054B00201A6091
:102A000070BDC046CC3300000040064006408650F2
:102A10002CE5FF1F4309084A9B009918F822C305BB
:102A200012051A4080235B0513431F2210401E3AF3
:102A300082400B431A6070472880044037B5C37842
:102A40008178009300230500074C1A00200000F055
:102A5000E7FA2B78054A1B041360054B1C436B787F
:102A60009B04236037BDC0460070044004800458B6
:102A70000000081910B5054800F052FA044B196817
:102A8000C9B20131FDF772FD10BDC04600400640DD
:102A900044801C5E10B5FFF7EDFF034B1968C9B207
:102AA0000131FDF763FD10BD44801458094B10B58A
:102AB0001B68DBB2002B06D0012B08D1064800F0C2
:102AC000EBF9400804E0044800F06CF900E0002055
:102AD00010BDC04604800458004006409C230020DE
:102AE000064A5B05126882B013431B780192834249
:102AF00001D0034B186802B07047C046CC330000C9
:102B00002CE5FF1F0A4B10B51B68DBB2022B07D068
:102B1000032B08D00020012B08D1FFF7C7FF05E0E9
:102B2000FFF7DCFF02E0034800F0DAF910BDC04611
:102B300004800C5D00400640030010B50020022B0D
:102B400001D8FFF7A7FF10BD10B5024B185CFFF7C7
:102B500061FF10BDD03300008022024BD2001A600A
:102B60007047C0463480045510B5024B185CFFF71F
:102B700051FF10BDD5330000F0B50F0087B09100B4
:102B8000029038001400FDF7F1FC810006003800C7
:102B9000FDF7ECFC231A0193844201D2031B01933D
:102BA00005252B0063430493042303930499380001
:102BB000FDF7DCFC83B21900380069430593FDF78B
:102BC000D5FC231A844200D2031B019A934202D8F7
:102BD000059E01930395049B01351B190493212D38
:102BE000E4D164212000FDF7C1FC03234343019A93
:102BF00002209A421BD2039B043B032B05D8802260
:102C0000029B12050B331343187081220020029996
:102C1000039B52050A31013B1143DBB20B70029B4F
:102C20001A43330ADBB21370029BF6B25E7007B030
:102C3000F0BD842210B501230C000230520502437E
:102C40009C4314708022520510430B40037010BD4A
:102C500010B59C24031D64058A182343914206D0B5
:102C60001C78002CFCD00C780131C471F6E710BD43
:102C7000F0B58C23050000202E1D5B058A18334318
:102C800091420FD09424640534432778002FFCD060
:102C9000EC790C701C78002C02D0082018700730DA
:102CA0000131EDE7F0BD00009C22084B8000C358C5
:102CB00052051343802210B51A60054BC358002BF0
:102CC00003D01B68002B00D0984710BDD8330000FC
:102CD00028E5FF1F8822431C520513431B78002B55
:102CE00006D0842306305B0518430378002BFCD004
:102CF0007047D14010B50C00002B13D0072A10D814
:102D00001000FDF71FFC04040404040406084C0929
:102D100008E0142100E00C212000FDF727FC04004E
:102D200000E00024200010BD882313B55B05034399
:102D30001978C9B200290ED1084B094C03431A78FF
:102D4000431C23431B7800910649D2B2DBB20968C9
:102D5000FFF7CFFF01E0044B186816BD000090118B
:102D6000000008122CE5FF1F0CE0FF1F30B5002A01
:102D700005D0802400202402A14206D90BE0064C95
:102D8000064D0C191000AC4205D85B009A18044B94
:102D90005200D05A484330BDEE85FFFF851E00002B
:102DA000DC330000942210B5831D520513431B78B9
:102DB0000400002B01D0002010E0FFF7B5FF011E3A
:102DC000F9D09C220648E31C52051A4303431278AB
:102DD0001B78D2B2DBB22000FFF7C8FF10BDC0469F
:102DE00000008812030030B5154A083313431B78DE
:102DF0008B4223D08023441C5B051C432278002A8D
:102E000008D1037A0E32490011400132934319432D
:102E1000017213E000222270821D1A431378002BE6
:102E2000FCD10E25037A490029400135AB431943F3
:102E30000123017223701378012BFCD130BDC046F1
:102E400000009010F7B580240093831D06000F004A
:102E5000451C64050193012913D11100FFF7C2FF3E
:102E6000B31D234325431C002F702378012BFCD175
:102E7000032233789343013A1343009A1A43327082
:102E8000F7BD002325432B70831D23431C002378AB
:102E9000002BFCD1ECE70000942270B50400831DE8
:102EA000520513431878231DC0B2002805D198227B
:102EB00052051A431278002A0FD081256D052B4345
:102EC0001978064B01311868C9B2FDF74FFB05347C
:102ED0002C4323781833DBB2584370BD2CE5FF1F19
:102EE000842252050243030000201278824210D04F
:102EF00080215A1C49050A431278824202D1054BAF
:102F0000186806E004480833044A03431B78106835
:102F1000D84070470CE0FF1F0000901010E0FF1F2A
:102F200010B50E49821D0A4312780300D2B2002068
:102F3000032A12D81000FDF705FB060A0E0218003E
:102F4000FFF7AAFF09E01800FFF72CFF05E01800C3
:102F5000FFF7C6FF01E0024B186810BD0000081122
:102F60002CE5FF1F30B5042544789B002B403835F5
:102F7000AC4323430824D2002240090128341A43D9
:102F800021401143417030BD8422F8B51D0006ABCD
:102F90001F785205431C1343002204001A701A4B79
:102FA000803203431A70194B861D33431A78022A64
:102FB000FCD12000FFF78EFE982100224905231D39
:102FC0000B431A70631D19430A7094225205324351
:102FD0001378002BFCD120791F3398431D40054303
:102FE000257160791F4098430743213367710B7047
:102FF0001378002BFCD098235B051E433378002BFD
:10300000FCD00020F8BDC0460000081300000811E5
:103010000F22037893431943C9B20170704700002F
:103020006B46E0221B78D2021B04134009071943A8
:10303000014BC1507047C0464410000070B50400F9
:1030400008001101FDF792FA83B25A1E074D92B2A1
:103050000221AA4207D881220021520522431B0ADD
:10306000C0B213706070080070BDC046FE1F000043
:10307000842210B501230C000230520502439C4308
:1030800014708022520510430B40037010BD30B500
:103090009C24031D64058A182343914207D01C78A1
:1030A000002CFCD00C7805790131C471F5E730BDF6
:1030B000F0B503008C2400201E1D64058A183443DB
:1030C000914210D094256D0535432F78002FFCD008
:1030D0001D79DD790D702578002D02D01879D87909
:1030E0000F200131ECE7F0BDC317C01858407047FE
:1030F000014B18687047C04674E0FF1F084B10B5BD
:103100000400002B02D0002100E000BF054B18682E
:10311000836A002B00D09847200000F011F9C046C8
:1031200000000000EC3300000E4B70B500251E00BF
:103130000D4CE41AA410A54204D0AB00F3589847F4
:103140000135F8E700F054F9084B00251E00084C43
:10315000E41AA410A54204D0AB00F35898470135F7
:10316000F8E770BD10340000103400001034000087
:103170001434000010B5034B0100186800F06CF81F
:1031800010BDC04674E0FF1F10B5034B0100186866
:1031900000F016F810BDC04674E0FF1F002310B504
:1031A0009A4203D0CC5CC4540133F9E710BD03004C
:1031B0008218934202D019700133FAE77047000079
:1031C00070B50500002944D00C1F2368002B00DADD
:1031D000E418280000F0B2F81E4A13681100002B12
:1031E00002D16360146031E0A3420DD92268A018B7
:1031F000834203D118685B688218226063600C60A8
:1032000024E0A24203D813005A68002AF9D11E68AC
:103210009819A0420BD12168711858181960824280
:1032200014D110685268411819605A600EE0A0422B
:1032300002D90C232B6009E021686018824203D177
:10324000106852684118216062605C60280000F0DC
:1032500076F870BD34E5FF1F032370B5CD1C9D4388
:10326000083506000C2D01D20C2501E0002D01DBF4
:10327000A94202D90C23336048E0300000F05EF828
:10328000234B1C681A002100002913D00B685B1B1C
:103290000DD40B2B02D90B60CC181EE08C4202D14E
:1032A000636813601AE04B6863600C0016E00C0062
:1032B0004968E9E7174C2368002B03D1300000F080
:1032C0002BF820602900300000F026F8431C18D0AD
:1032D0000323C41C9C43A0420DD12560300000F0A4
:1032E0002EF8200007220B30231D9043C31A0ED066
:1032F0005A42E2500BE0211A300000F00DF8431C56
:10330000EBD10C233000336000F019F8002070BDC1
:1033100034E5FF1F30E5FF1F002370B5064C0500A4
:1033200008002360FDF798FA431C03D12368002BA3
:1033300000D02B6070BDC04638E5FF1F7047704756
:10334000FEE7C0460000000000B0064000C0064096
:1033500048414E44204F4E0D0A0048414E44204FF4
:1033600046460D0A0049326320696E697469616CD2
:10337000697A65640D0A005453492063616C69627F
:1033800072617465640D0A00416363656C65726FF8
:103390006D657465722049442025780D0A006D6FB3
:1033A0007573655461736B0049444C4500546D72EC
:1033B000205376630000800001000000030000003D
:1033C000000100000100010301030000005006405D
:1033D000898A8B8C8DFF6B6C000004408002DC02BC
:1033E0000005B80580079508000A710B14E0FF1F5F
:1033F000F8B5C046F8BC08BC9E467047F8B5C04654
:08340000F8BC08BC9E467047B1
:0834080068D0FF7F0100000005
:04341000390400007B
:04341400110400009F
:10341800AAAAAAAAFFFFFFFF00004001008000003F
:1034280000093D000000000000000000000000004E
:103438000000000000000000000000000000000084
:103448000000000000000000000000000000000074
:103458000000000000000000000000000000000064
:103468000000000000000000000000000000000054
:103478000000000000000000000000000000000044
:0C3488000000000014E0FF1F0000000026
:04000003000004E90C
:00000001FF
