S013000068656C6C6F5F776F726C642E7372656376
S113000000600020E9040000F9040000F904000085
S113001000000000000000000000000000000000DC
S1130020000000000000000000000000C9140000EF
S11300300000000000000000F51400008914000016
S1130040F9040000F9040000F9040000F9040000B8
S1130050F9040000F9040000F9040000F9040000A8
S1130060F9040000F9040000F9040000F904000098
S1130070F9040000F9040000F9040000F904000088
S1130080F9040000F9040000F9040000F904000078
S1130090F9040000F9040000F9040000F904000068
S11300A0F9040000F9040000F9040000F904000058
S11300B049310000F9040000F9040000F9040000CB
S1130400FFFFFFFFFFFFFFFFFFFFFFFFFEFFFFFFF9
S113041010B5064C2378002B07D1054B002B02D0D6
S1130420044800E000BF0123237010BD7CE0FF1FDF
S11304300000000060700000084B10B5002B03D0D2
S11304400749084800E000BF07480368002B00D1B3
S113045010BD064B002BFBD09847F9E700000000C5
S113046080E0FF1F6070000078E0FF1F00000000C4
S1130470164B002B00D1144B9D46402292029A1A2F
S1130480924600218B460F461348144A121A05F06F
S1130490E4F90F4B002B00D098470E4B002B00D0F3
S11304A098470020002104000D000D48002802D0C8
S11304B00C4800E000BF05F08DF92000290000F091
S11304C099FE05F061F9C0460000080000600020B4
S11304D000000000000000007CE0FF1F38E5FF1F63
S11304E0000000000000000072B603F0A9FD03F054
S11304F0B3FD62B6FFF7BCFF00480047F9040000F3
S1130500F0C041464A4653465C466D4676467EC038
S11305102838F0C80020704710307CC890469946AF
S1130520A246AB46B54608C82838F0C8081C00D116
S1130530012018470023C25C0133002AFBD1581E56
S113054070470000002243088B4274D303098B4296
S11305505FD3030A8B4244D3030B8B4228D3030C8F
S11305608B420DD3FF22090212BA030C8B4202D331
S11305701212090265D0030B8B4219D300E0090A59
S1130580C30B8B4201D3CB03C01A5241830B8B4262
S113059001D38B03C01A5241430B8B4201D34B034B
S11305A0C01A5241030B8B4201D30B03C01A5241B0
S11305B0C30A8B4201D3CB02C01A5241830A8B4235
S11305C001D38B02C01A5241430A8B4201D34B021E
S11305D0C01A5241030A8B4201D30B02C01A524182
S11305E0CDD2C3098B4201D3CB01C01A5241830936
S11305F08B4201D38B01C01A524143098B4201D370
S11306004B01C01A524103098B4201D30B01C01A9A
S11306105241C3088B4201D3CB00C01A5241830814
S11306208B4201D38B00C01A524143088B4201D341
S11306304B00C01A5241411A00D2014652411046A1
S11306407047FFE701B5002000F0F0F802BDC04696
S11306500029F7D076E7704703460B437FD4002286
S113066043088B4274D303098B425FD3030A8B4242
S113067044D3030B8B4228D3030C8B420DD3FF22AC
S1130680090212BA030C8B4202D31212090265D07A
S1130690030B8B4219D300E0090AC30B8B4201D32D
S11306A0CB03C01A5241830B8B4201D38B03C01A74
S11306B05241430B8B4201D34B03C01A5241030BEB
S11306C08B4201D30B03C01A5241C30A8B4201D39C
S11306D0CB02C01A5241830A8B4201D38B02C01A47
S11306E05241430A8B4201D34B02C01A5241030ABE
S11306F08B4201D30B02C01A5241CDD2C3098B42A3
S113070001D3CB01C01A524183098B4201D38B011F
S1130710C01A524143098B4201D34B01C01A5241C2
S113072003098B4201D30B01C01A5241C3088B4207
S113073001D3CB00C01A524183088B4201D38B00F2
S1130740C01A524143088B4201D34B00C01A524194
S1130750411A00D201465241104670475DE0CA0F6B
S113076000D04942031000D34042534000229C462B
S113077003098B422DD3030A8B4212D3FC22890135
S113078012BA030A8B420CD3890192118B4208D30B
S1130790890192118B4204D389013AD0921100E06D
S11307A08909C3098B4201D3CB01C01A5241830981
S11307B08B4201D38B01C01A524143098B4201D3AE
S11307C04B01C01A524103098B4201D30B01C01AD9
S11307D05241C3088B4201D3CB00C01A5241830853
S11307E08B4201D38B00C01A5241D9D243088B42A9
S11307F001D34B00C01A5241411A00D2014663464C
S113080052415B10104601D34042002B00D54942AF
S1130810704763465B1000D3404201B5002000F0EE
S113082005F802BD0029F8D016E770477047C046A6
S113083080B584B000AF7860114B1B68002B02D1E7
S11308400F4B104A1A600E4B1B68FB600C4B1A6866
S11308507B68D2180C4B9A4207D904F08FFF03002F
S11308600C221A6001235B4206E0054B1A687B6880
S1130870D218034B1A60FB681800BD4604B080BD53
S113088098E0FF1F38E5FF1F3805002080B500AF52
S11308900849084A084BD358802212051343064AD4
S11308A08B50064B054A92680C210A439A60C04655
S11308B0BD4680BD007004403C10000000B0034001
S11308C080B582B000AF094B03221A60C046074BC3
S11308D01B6880229343FAD0044B1A69BB1D1A800B
S11308E0BB1D1B881800BD4602B080BD00B003408C
S11308F080B500AF0D490D4A0D4BD3582022134348
S11309000B4A8B500949094A094BD35820221343F7
S1130910074A8B50074B00229A60064B00225A600C
S1130920044B054A1A60C046BD4680BD00700440B1
S113093038100000005004408040310080B582B07F
S113094000AF0200FB1D1A70104BFA1D127812073B
S11309505A600E4B0D4A52688021C9030A435A60FB
S1130960C0460A4B1B6804221340FAD0074B074ABF
S1130970126804210A431A60044B5B689BB2FF228D
S113098013409BB21800BD4602B080BD0050044025
S113099080B584B000AF78600023FB6003E0C046FC
S11309A0FB680133FB60FA687B689A42F7DBC04658
S11309B0BD4604B080BDC04690B585B000AF04000C
S11309C008001100FB1D221C1A70BB1D021C1A70AA
S11309D07B1D0A1C1A700F23FB1800221A70594A37
S11309E0584B9B78DBB210210B43DBB29370554A12
S11309F0544B9B78DBB220210B43DBB29370514AFA
S1130A00FB1D1B781371C0464E4A0F23FB18D27886
S1130A101A700F23FB181B785BB2002BF4DA9623B1
S1130A205B001800FFF7B4FF464A7B1D1B78137167
S1130A3096235B001800FFF7ABFFC046414A0F2323
S1130A40FB18D2781A700F23FB181B785BB2002BAB
S1130A50F4DA3C4A3B4B9B78DBB204210B43DBB218
S1130A609370384ABB1D1B781371C046354A0F2357
S1130A70FB18D2781A700F23FB181B785BB2002B7B
S1130A80F4DA96235B001800FFF782FF2D4A2D4B02
S1130A909B78DBB210218B43DBB293700E23FB18DF
S1130AA000221A70274A0E23FB1812791A70C046C6
S1130AB0244A0F23FB18D2781A700F23FB181B78D3
S1130AC05BB2002BF4DA96235B001800FFF760FF9B
S1130AD01C4A1C4B9B78DBB208210B43DBB293709E
S1130AE0184A0E23FB1812791A7096235B0018001B
S1130AF0FFF74EFF134A134B9B78DBB210210B43D5
S1130B00DBB293700F4A0F4B9B78DBB220218B43EF
S1130B10DBB29370C0460B4BDB78DBB21A002023A8
S1130B201340F8D0074A074B9B78DBB208218B436C
S1130B30DBB293700E23FB181B781800BD4605B07A
S1130B4090BDC0460060064090B585B000AF04007B
S1130B5008001100FB1D221C1A70BB1D021C1A7018
S1130B607B1D0A1C1A700F23FB1800221A702D4AD1
S1130B702C4B9B78DBB210210B43DBB29370294AD8
S1130B80284B9B78DBB220210B43DBB29370254AC0
S1130B90FB1D1B781371C046224A0F23FB18D27821
S1130BA01A700F23FB181B785BB2002BF4DA962320
S1130BB05B001800FFF7ECFE1A4ABB1D1B7813718B
S1130BC0C046184A0F23FB18D2781A700F23FB185B
S1130BD01B785BB2002BF4DA96235B001800FFF756
S1130BE0D7FE104A7B1D1B781371C0460D4A0F2394
S1130BF0FB18D2781A700F23FB181B785BB2002BFA
S1130C00F4DA96235B001800FFF7C2FE054A054B91
S1130C109B78DBB220218B43DBB29370C046BD4688
S1130C2005B090BD0060064080B500AF1F491F4A63
S1130C301F4BD3588022920113431D4A8B501B49EA
S1130C401A4A1C4BD358402213431A4A8B501A4B4E
S1130C5000221A70184B00225A70174B00229A7007
S1130C60154B0022DA70144B00225A71124B0022E9
S1130C709A71114B0022DA71104B104A126EA021A6
S1130C80C9000A431A660D4B0C4A526EA021C900D2
S1130C900A435A66084B08225A70074BC0229A70BE
S1130CA0054B00221A71C046BD4680BD0070044049
S1130CB038100000341000000060064000D00440EA
S1130CC080B582B000AF786003E07B68013B7B6055
S1130CD0C0467B68002BF8D1C046BD4602B080BD3B
S1130CE080B584B000AF0200FB1D1A700023FB60C6
S1130CF00023BB600EE00920FFF720FE03001A006A
S1130D00FB689B18FB60074B1800FFF7D9FFBB6813
S1130D100133BB60BB683F2BEDD9FB681800BD46AF
S1130D2004B080BD8813000080B582B000AF0023FA
S1130D307B6000233B600DE0FFF7C2FD03001A0057
S1130D407B689B187B60074B1800FFF7B9FF3B6873
S1130D5001333B603B683F2BEED97B681800BD46EE
S1130D6002B080BD8813000080B582B000AF254B6F
S1130D701B69DAB2FB1D08210A401A70FB1D1B789F
S1130D80002B33D0204B1B78002B2FD01E4B00227E
S1130D901A701E4B5B795A1E9341DBB201225340F9
S1130DA0DBB21A1C01231340DAB2184B5A71174BE9
S1130DB05B79002B0CD0164B154A126815490A4072
S1130DC01A60154B144A126820210A431A6014E071
S1130DD00F4B0F4A1268802189050A431A600E4B93
S1130DE00D4A126820218A431A6006E0FB1D1B7815
S1130DF0002B03D1044B01221A70C046C046BD46E5
S1130E0002B080BD80F00F4074E2FF1F78E2FF1F44
S1130E1000F10F40FFFFFFDFC0F00F40F0B58BB0D3
S1130E2004AF786001F02AFA0300FB600C23FB187E
S1130E300121180001F0F4F8FFF796FFDA4B0022C5
S1130E409B5E9AB2D94B1B785BB21900D84B5B56A8
S1130E509BB2D31A9BB21AB2D34B1A80D54B002241
S1130E609B5E9AB2D14B1B785BB21900D24B5B5696
S1130E709BB2D31A9BB21AB2CE4B1A80CF4B00222C
S1130E809B5E9AB2C94B1B785BB21900CC4B5B5684
S1130E909BB2D31A9BB21AB2C84B1A80C94B1B68B7
S1130EA0C24A127852B21100C74A49008A5A9A1AA1
S1130EB0C44B1A60C54B1B68BC4A127852B211006D
S1130EC0C34A525C9A1AC14B1A60C24B1B68B74A98
S1130ED0127852B21100C04A525C9A1ABD4B1A6081
S1130EE001223B213A20FFF767FD03001A00162375
S1130EF0FB181A7003223B213A20FFF75DFD030023
S1130F001A001523FB181A7005223B213A20FFF71B
S1130F1053FD03001A001423FB181A700920FFF76D
S1130F200DFD03001A001323FB181A700A20FFF7A3
S1130F3005FD03001A001223FB181A701023FC1875
S1130F40FFF7BEFC03002380984B1B785BB21900AB
S1130F50974B1622BA1812785A54944B1B785BB2EA
S1130F601900954B1522BA1812785A548F4B1B78D6
S1130F705BB21900924B1422BA1812785A548B4B54
S1130F801B785BB21A00904B520010217918098823
S1130F90D152864B1B785BB21A001323FB181978C5
S1130FA08B4B9954814B1B785BB21A001223FB18AC
S1130FB01978894B99547D4B1B785BB21A007C4B92
S1130FC09B569AB2784B00215B5E9BB2D3189BB2BE
S1130FD01AB2754B1A80754B1B785BB21A00764BAC
S1130FE09B569AB2734B00215B5E9BB2D3189BB2A3
S1130FF01AB2704B1A806D4B1B785BB21A00704B9F
S11310009B569AB26D4B00215B5E9BB2D3189BB288
S11310101AB26A4B1A80654B1B785BB21A006A4B92
S11310205200D35A1A00674B1B68D218654B1A60DA
S11310305E4B1B785BB21A00654B9B5C1A00634BDA
S11310401B68D218614B1A60584B1B785BB21A00AC
S1131050614B9B5C1A005F4B1B68D2185D4B1A6096
S1131060524B1B785BB2DBB20133DBB25AB24F4B4B
S11310701A704E4B1B785BB2584A134004D5013B9F
S113108040225242134301335AB2484B1A70464B22
S113109000229B5E002B00DA3F339B111BB21C0025
S11310A0444B00229B5E002B00DA3F339B111BB2A2
S11310B01D00424B00229B5E002B00DA3F339B1144
S11310C01BB21E003F4B1B68002B00DA3F339B1101
S11310D01A003E4B1B68002B00DA3F339B111900AA
S11310E03C4B1B68002B00DA3F339B113C480293B6
S11310F00191009233002A00210002F04DFB334B92
S11311001A68344B1B68D31A180004F013FB03004D
S1131110BF2B3EDD2D4B1A682E4B1B689A4210DD07
S1131120304B304A126830490A401A602F4B2F4A1C
S1131130126820210A431A601723FB1801221A702F
S113114010E0284B274A1268802189050A431A6057
S1131150264B264A126820218A431A601723FB185B
S113116000221A70224B5B79002B05D0204B1722EA
S1131170BA1812781A7159E61723FB181B78002B3A
S113118003D11B4B01221A7050E6194B01225A70ED
S11311904CE6174B00221A70154B00225A70144B60
S11311A000221A7142E6C0465EE2FF1F5CE2FF1FA6
S11311B09CE0FF1F60E2FF1FDCE0FF1F62E2FF1FF5
S11311C01CE1FF1F64E2FF1FDCE1FF1F68E2FF1F59
S11311D05CE1FF1F6CE2FF1F9CE1FF1F3F000080EA
S11311E0A067000000F10F40FFFFFFDFC0F00F40D9
S11311F078E2FF1F90B587B004AF01F0ADFFFFF7B1
S113120045FBFFF775FBFFF70FFD344B334A1268BC
S1131210802189050A431A60314B314A1268202122
S11312208A431A602F4B180002F0B6FA0920FFF720
S113123057FD0300DAB22C4B1A700A20FFF750FD59
S11312400300DAB2294B1A70FFF76EFD03009AB25D
S1131250274B1A80244B1B781A00244B1B78D31A73
S1131260180004F067FA0300022B0DDD0920FFF7D4
S113127037FD0300DAB21C4B1A700A20FFF730FD69
S11312800300DAB2194B1A701A4B180002F084FAF0
S1131290FC1D0D223B213A20FFF78EFB0300237037
S11312A0FB1D1A78144B1100180002F075FA012284
S11312B02A213A20FFF748FC1049114800230393E0
S11312C00023029300230193022300930023C822E6
S11312D000F0EEFD00F008FFFEE7C04600F10F400D
S11312E0C0F00F40C467000070E2FF1F71E2FF1FEF
S11312F072E2FF1FD8670000EC670000046800007A
S11313001D0E000080B500AF044B1B68013302D0F2
S113131000F014F9FEE700F011F9FEE700E0FF1F0A
S113132080B584B000AFF860B9607A60FB68043BB4
S1131330FB60FB68802252041A60FB68043BFB607C
S1131340BA68FB681A60FB68043BFB60084AFB68E8
S11313501A60FB68143BFB607A68FB681A60FB68E0
S1131360203BFB60FB681800BD4604B080BDC0464E
S113137005130000B0B500AF0C4B0C4A1268C02135
S113138009060A431A600A4C0A4B1B68C821180054
S1131390FFF7D8F80300013B2360074B00221A60D3
S11313A0064B07221A60C046BD46B0BD20ED00E0E2
S11313B014E000E008E0FF1F18E000E010E000E0A7
S11313C080B500AF024B07221A60C046BD4680BDFF
S11313D010E000E080B500AF0D4B0D4A1268C0214B
S11313E009040A431A600B4B00221A60FFF7C2FF7C
S11313F0FFF7E6FF084B1800FFF782F8031E01D041
S1131400002302E000F050F800231800BD4680BD20
S113141020ED00E000E0FF1F80E2FF1F80B500AF79
S113142000F08CF8054B1B685A1C044B1A60BFF380
S11314304F8FBFF36F8FC046BD4680BD00E0FF1FD6
S113144080B500AF074B1B685A1E064B1A60054B4C
S11314501B68002B02D1002000F076F8C046BD4680
S113146080BDC04600E0FF1F80B500AF054B802261
S113147052051A60BFF34F8FBFF36F8FC046BD464E
S113148080BDC04604ED00E080B500AF00F056F822
S113149000F006FF031E01D0FFF7E6FF002000F076
S11314A053F8C046BD4680BD80B500AF054800680E
S11314B0006880F3088862B600DFC046C046BD46B7
S11314C080BD000008ED00E0084B19680868103082
S11314D0F0C8A046A946B246BB4680F30988203826
S11314E0F0C871460D2001430847C046DCE2FF1FE7
S11314F0C046C046EFF309800E4B1A6820381060CE
S1131500F0C044464D4656465F46F0C008B572B634
S113151000F07CFF62B60CBC116808681030F0C89B
S1131520A046A946B246BB4680F309882038F0C8D5
S11315301847C046DCE2FF1FC046C046EFF31080E8
S113154072B670470023180080F310887047C046B5
S113155080B584B000AF786000F000FE7B681800AE
S113156004F05EF90300FB6000F004FEFB68180061
S1131570BD4604B080BDC04680B582B000AF78607F
S11315807B68002B07D000F0E9FD7B68180004F0AD
S113159051F900F0EFFDC046BD4602B080BDC04623
S11315A080B582B000AF78607B6808331A007B682E
S11315B05A607B68012252429A607B6808331A00A1
S11315C07B68DA607B6808331A007B681A617B6881
S11315D000221A60C046BD4602B080BD80B582B00C
S11315E000AF78607B6800221A61C046BD4602B035
S11315F080BDC04680B584B000AF786039607B6838
S11316005B68FB603B68FA685A60FB689A683B68F1
S11316109A60FB689B683A685A60FB683A689A600B
S11316203B687A681A617B681B685A1C7B681A607D
S1131630C046BD4604B080BD80B584B000AF7860BC
S113164039603B681B68BB60BB68013303D17B68AE
S11316501B69FB600CE07B680833FB6002E0FB68FD
S11316605B68FB60FB685B681A68BB689A42F6D9E2
S1131670FB685A683B685A603B685B683A689A60E2
S11316803B68FA689A60FB683A685A603B687A6813
S11316901A617B681B685A1C7B681A60C046BD4689
S11316A004B080BD80B584B000AF78607B681B69EE
S11316B0FB607B685B687A6892689A607B689B6869
S11316C07A6852685A60FB685A687B689A4203D108
S11316D07B689A68FB685A607B6800221A61FB6821
S11316E01B685A1EFB681A60FB681B681800BD461D
S11316F004B080BD80B584B000AF786039607B6889
S1131700FB60FB68002B02D1FFF718FFFEE7FFF731
S113171085FEFB681A68FB68D96BFB681B6C4B433E
S1131720D218FB685A60FB6800229A63FB681A6847
S1131730FB689A60FB681A68FB68DB6B591EFB68E0
S11317401B6C4B43D218FB68DA60FB6801225242DF
S11317505A64FB68012252429A643B68002B0ED102
S1131760FB681B69002B14D0FB681033180000F0D1
S113177005FF0300012B0CD1FFF776FE09E0FB689F
S113178010331800FFF70CFFFB6824331800FFF731
S113179007FFFFF755FE01231800BD4604B080BDC6
S11317A080B588B000AFF860B960FB1D1A700023E3
S11317B0BB61FB68002B02D1FFF7C0FEFEE7BB68EC
S11317C0002B02D10023FB6104E0FB68BA68534399
S11317D00133FB61FB694C331800FFF7B9FE0300CA
S11317E07B617B69002B1AD07B693B61BB68002B52
S11317F003D13B693A691A6004E07B694C331A00EF
S11318003B691A603B69FA68DA633B69BA681A642F
S11318103B6901211800FFF76DFF3B69BB61BB69A0
S1131820002B02D1FFF78AFEFEE7BB691800BD4614
S113183008B080BD80B58AB000AFF860B9607A6046
S11318403B6000237B62FB683B623B6A002B02D156
S1131850FFF774FEFEE7BB68002B03D13B6A1B6CE9
S1131860002B01D1012300E00023002B02D1FFF75C
S113187065FEFEE73B68022B03D13B6ADB6B012B61
S113188001D1012300E00023002B02D1FFF756FE13
S1131890FEE701F0D1F8031E02D17B68002B01D1D1
S11318A0012300E00023002B02D1FFF747FEFEE7EF
S11318B0FFF7B4FD3B6A9A6B3B6ADB6B9A4202D337
S11318C03B68022B1FD13A68B9683B6A180000F0E4
S11318D0B9F90300FB613B6A5B6A002B0AD03B6ADF
S11318E02433180000F04AFE0300012B07D1FFF750
S11318F0BBFD04E0FB69002B01D0FFF7B5FDFFF74A
S11319009FFD012355E07B68002B03D1FFF798FD71
S113191000234EE07B6A002B06D11423FB18180029
S113192000F08AFE01237B62FFF78AFD00F016FCBB
S1131930FFF774FD3B6A5B6C013302D13B6A002202
S11319405A643B6A9B6C013302D13B6A00229A645D
S1131950FFF776FD3A1D1423FB181100180000F060
S113196085FE031E1ED13B6A180000F05DFA031EBB
S113197011D03B6A10337A681100180000F098FD0A
S11319803B6A180000F0F0F900F0F4FB031E8FD15D
S1131990FFF76AFD8CE73B6A180000F0E5F900F0F8
S11319A0E9FB85E73B6A180000F0DEF900F0E2FB92
S11319B000231800BD460AB080BDC04680B588B07B
S11319C000AFF860B9607A603B60FB68BB61BB69DB
S11319D0002B02D1FFF7B2FDFEE7BB68002B03D159
S11319E0BB691B6C002B01D1012300E00023002BF9
S11319F002D1FFF7A3FDFEE73B68022B03D1BB69CD
S1131A00DB6B012B01D1012300E00023002B02D169
S1131A10FFF794FDFEE7FFF791FD03007B61BB69CF
S1131A209A6BBB69DB6B9A4202D33B68022B23D1CE
S1131A303A68B968BB69180000F004F9BB699B6C8B
S1131A40013311D1BB695B6A002B12D0BB6924330B
S1131A50180000F093FD031E0BD07B68002B08D008
S1131A607B6801221A6004E0BB699B6C5A1CBB6949
S1131A709A640123FB6101E00023FB617B69180088
S1131A80FFF762FDFB691800BD4608B080BDC04683
S1131A9080B58AB000AFF860B9607A603B6000231B
S1131AA07B62FB683B623B6A002B02D1FFF746FD79
S1131AB0FEE7BB68002B03D13B6A1B6C002B01D1F2
S1131AC0012300E00023002B02D1FFF737FDFEE7DE
S1131AD000F0B2FF031E02D17B68002B01D1012369
S1131AE000E00023002B02D1FFF728FDFEE7FFF7FB
S1131AF095FC3B6A9B6B002B3CD03B6ADB68FB612B
S1131B00BA683B6A1100180000F008F93B68002B22
S1131B101CD13B6A9B6B5A1E3B6A9A633B6A1B68E7
S1131B20002B04D101F056F802003B6A5A603B6A6C
S1131B301B69002B1AD03B6A1033180000F01EFDFD
S1131B400300012B12D1FFF78FFC0FE03B6AFA6907
S1131B50DA603B6A5B6A002B08D03B6A24331800C6
S1131B6000F00CFD031E01D0FFF77EFCFFF768FCBC
S1131B70012363E07B68002B03D1FFF761FC0023A2
S1131B805CE07B6A002B06D11423FB18180000F0DC
S1131B9053FD01237B62FFF753FC00F0DFFAFFF7EC
S1131BA03DFC3B6A5B6C013302D13B6A00225A6400
S1131BB03B6A9B6C013302D13B6A00229A64FFF7B3
S1131BC03FFC3A1D1423FB181100180000F04EFDD1
S1131BD0031E2CD13B6A180000F010F9031E1FD01D
S1131BE03B6A1B68002B08D1FFF718FC3B6A5B6853
S1131BF0180000F03DFFFFF723FC3B6A24337A68AA
S1131C001100180000F054FC3B6A180000F0ACF816
S1131C1000F0B0FA031E00D069E7FFF725FC66E781
S1131C203B6A180000F0A0F800F0A4FA5FE73B6AF2
S1131C30180000F099F800F09DFA00231800BD4642
S1131C400AB080BD80B586B000AFF860B9607A6034
S1131C5000237B61FB681B6C002B0ED1FB681B68A7
S1131C60002B51D1FB685B68180000F05FFF030094
S1131C707B61FB6800225A6046E07B68002B19D127
S1131C80FB689868FB681A6CBB68190003F0DCFDFC
S1131C90FB689A68FB681B6CD218FB689A60FB6847
S1131CA09A68FB685B689A422ED3FB681A68FB68E3
S1131CB09A6029E0FB68D868FB681A6CBB68190055
S1131CC003F0C2FDFB68DA68FB681B6C5B42D21848
S1131CD0FB68DA60FB68DA68FB681B689A4207D223
S1131CE0FB685A68FB681B6C5B42D218FB68DA60BD
S1131CF07B68022B08D1FB689B6B002B04D0FB682C
S1131D009B6B5A1EFB689A63FB689B6B5A1CFB68AF
S1131D109A637B691800BD4606B080BD80B582B069
S1131D2000AF786039607B681B6C002B18D07B682F
S1131D30DA687B681B6CD2187B68DA607B68DA68C7
S1131D407B685B689A4203D37B681A687B68DA60B5
S1131D507B68D9687B681A6C3B68180003F074FDD3
S1131D60C046BD4602B080BD80B582B000AF786089
S1131D70FFF754FB11E07B685B6A002B12D07B6891
S1131D802433180000F0FAFB031E01D000F0BEFC5F
S1131D907B689B6C5A1E7B689A647B689B6C002BE7
S1131DA0E9DC00E0C0467B68012252429A64FFF7F6
S1131DB047FBFFF733FB11E07B681B69002B12D054
S1131DC07B681033180000F0D9FB031E01D000F02B
S1131DD09DFC7B685B6C5A1E7B685A647B685B6CF9
S1131DE0002BE9DC00E0C0467B68012252425A64C1
S1131DF0FFF726FBC046BD4602B080BD80B584B067
S1131E0000AF7860FFF70AFB7B689B6B002B02D165
S1131E100123FB6001E00023FB60FFF711FBFB687B
S1131E201800BD4604B080BD80B584B000AF7860B2
S1131E30FFF7F4FA7B689A6B7B68DB6B9A4202D1FA
S1131E400123FB6001E00023FB60FFF7F9FAFB6864
S1131E501800BD4604B080BD80B584B000AF786082
S1131E6039607B68FB60FFF7D9FAFB685B6C013370
S1131E7002D1FB6800225A64FB689B6C013302D1D7
S1131E80FB6800229A64FFF7DBFAFB689B6B002B6C
S1131E9006D1FB6824333A681100180000F042FBB5
S1131EA0FB681800FFF760FFC046BD4604B080BD64
S1131EB090B58BB002AFF860B9603B60BB1D1A806F
S1131EC0FB68002B02D1FFF739FBFEE73B6B112BBC
S1131ED002D9FFF733FBFEE7BA6BBB1D1B88110069
S1131EE0180000F037FD0300BB61BB69002B00D173
S1131EF071E0BB691A6BBB1D1B8842498C46634465
S1131F009B00D3187B617B69072293437B617B69C8
S1131F100722134002D0FFF711FBFEE7FC6B3A6B7C
S1131F20B968B869BB1D1B880093230000F008FC46
S1131F303A68F9687B691800FFF7F2F90200BB6997
S1131F401A607B6B002B02D07B6BBA691A60FFF7B7
S1131F5065FA2D4B1B685A1C2B4B1A602B4B1B68C4
S1131F60002B09D1294BBA691A60274B1B68012B36
S1131F700FD100F03BFC0CE0254B1B68002B08D173
S1131F80224B1B68DA6A3B6B9A4202D81F4BBA6930
S1131F901A60204B1B685A1C1E4B1A60BB69DA6A14
S1131FA01D4B1B689A4203D9BB69DA6A1A4B1A6043
S1131FB0BB69DA6A13009B009B189B00174A9A18A6
S1131FC0BB69043319001000FFF714FB0123FB6104
S1131FD0FFF736FA02E001235B42FB61FB69012B48
S1131FE00BD10B4B1B68002B07D0084B1B68DA6A1C
S1131FF03B6B9A4201D2FFF737FAFB691800BD46E2
S113200009B090BDFFFFFF3FB8E4FF1FDCE2FF1FF4
S1132010C4E4FF1FD4E4FF1FC0E4FF1FE0E2FF1F7E
S113202080B586B000AF7860396000237B617B683F
S1132030002B02D1FFF782FAFEE73B68002B02D1A6
S1132040FFF77CFAFEE7254B1B68002B02D0FFF755
S113205075FAFEE700F082F8214B1B683B617B6850
S11320601A683B68D318FB607B681A683B699A421C
S11320700BD97B681A68FB689A4211D9FA683B69E4
S11320809A420DD901237B610AE07B681A68FB68D8
S11320909A4203D8FA683B699A4201D901237B61C9
S11320A07B68FA681A607B69002B09D00D4B1B68AA
S11320B004331800FFF7F6FAFB68180000F014FC6C
S11320C000F058F80300BB60BB68002B01D1FFF798
S11320D0CBF9C046BD4606B080BDC046D8E4FF1F5C
S11320E0BCE4FF1FDCE2FF1F80B586B004AF1749D4
S11320F01748002303930023029300230193002332
S113210000930023C822FFF7D3FE03007B607B68A3
S1132110012B03D100F070FD03007B607B68012B71
S11321200AD1FFF70BFA0B4B01221A600A4B00226B
S11321301A60FFF74FF905E07B68002B02D1FFF727
S1132140FDF9FEE7C046BD4602B080BD1068000040
S113215021270000C4E4FF1FBCE4FF1F80B500AFCB
S1132160034B1B685A1C024B1A60C046BD4680BD17
S1132170D8E4FF1F80B582B000AF00237B60374BEB
S11321801B68002B02D1FFF7D9F9FEE7FFF746F9E8
S1132190324B1B685A1E314B1A60304B1B68002BA4
S11321A055D12F4B1B68002B51D02FE02D4BDB68F2
S11321B0DB683B603B6818331800FFF773FA3B6831
S11321C004331800FFF76EFA3B68DA6A264B1B6883
S11321D09A4203D93B68DA6A234B1A603B68DA6A8D
S11321E013009B009B189B00204A9A183B680433F9
S11321F019001000FFF7FEF93B68DA6A1C4B1B68F4
S1132200DB6A9A4202D31B4B01221A60154B1B68EE
S1132210002BCBD1184B1B68002B10D00BE000F027
S11322203FF8031E02D0134B01221A60124B1B68A5
S11322305A1E114B1A60104B1B68002BEFD10D4B2B
S11322401B68012B03D101237B60FFF70DF9FFF716
S1132250F7F87B681800BD4602B080BDD8E4FF1FC4
S1132260B8E4FF1F78E4FF1FC0E4FF1FE0E2FF1F94
S1132270DCE2FF1FCCE4FF1FC8E4FF1F80B582B07F
S113228000AFFFF7CBF8054B1B687B60FFF7D8F86E
S11322907B681800BD4602B080BDC046BCE4FF1F89
S11322A080B586B000AF00237B614D4B1B68002BCB
S11322B000D085E04B4B1B685A1C4A4B1A60494BB3
S11322C01B683B613B69002B18D1474B1B681B689B
S11322D0002B02D0FFF732F9FEE7434B1B68FB608B
S11322E0424B1A68404B1A60404BFA681A60404BE4
S11322F01B685A1C3E4B1A6000F07AFB3D4B1B686E
S11323003A699A424ED3384B1B681B68002B01D1A3
S1132310012300E00023002B04D0364B012252425B
S11323201A603FE0304B1B68DB68DB68BB60BB684E
S11323305B687B603A697B689A4203D22D4B7A686A
S11323401A602FE0BB6804331800FFF7ABF9BB68D1
S11323509B6A002B04D0BB6818331800FFF7A2F95E
S1132360BB68DA6A244B1B689A4203D9BB68DA6AF1
S1132370214B1A60BB68DA6A13009B009B189B0010
S11323801E4A9A18BB68043319001000FFF732F98B
S1132390BB68DA6A1A4B1B68DB6A9A42B3D301231F
S11323A07B61B0E7164B1B68DA6A144913009B0083
S11323B09B189B005B58012B07D901237B6104E028
S11323C0104B1B685A1C0F4B1A600F4B1B68002BD9
S11323D001D001237B617B691800BD4606B080BD36
S11323E0D8E4FF1FBCE4FF1F70E4FF1F74E4FF1F69
S11323F0D0E4FF1F04E0FF1FC0E4FF1FE0E2FF1F63
S1132400DCE2FF1FC8E4FF1FCCE4FF1F80B582B0ED
S113241000AF224B1B68002B03D0214B01221A6012
S113242037E01F4B00221A600BE01E4B1B68002B89
S113243002D1FFF783F8FEE71A4B1B685A1E194BAB
S11324401A60184B1A68184913009B009B189B00CC
S11324505B58002BE9D0134B1A6813009B009B18A0
S11324609B00114A9B187B607B685B685A687B6899
S11324705A607B685A687B6808339A4204D17B6847
S11324805B685A687B685A607B685B68DA68074BEC
S11324901A60C046BD4602B080BDC046D8E4FF1FE6
S11324A0CCE4FF1FC0E4FF1FE0E2FF1FDCE2FF1FDC
S11324B080B584B000AF786039607B68002B02D1AE
S11324C0FFF73CF8FEE7144B1B6818331A007B68CF
S11324D011001800FFF7B0F80F4B1B680433180005
S11324E0FFF7E0F83B68013308D10B4B1B681A1D5A
S11324F00A4B11001800FFF77DF808E0084B1A6832
S11325003B68D318FB60FB68180000F0EDF9C04687
S1132510BD4604B080BDC046DCE2FF1FA4E4FF1F3B
S1132520BCE4FF1F80B584B000AF786039607B687D
S1132530002B02D1FFF702F8FEE70E4B1B6818339D
S11325401A007B6811001800FFF754F8094B1B6848
S113255004331800FFF7A6F8074B1A683B68D31832
S1132560FB60FB68180000F0BFF9C046BD4604B02C
S113257080BDC046DCE2FF1FBCE4FF1F80B584B011
S113258000AF78607B68DB68DB68BB60BB68002BEE
S113259002D1FEF7D3FFFEE7BB6818331800FFF73C
S11325A081F81F4B1B68002B1DD1BB680433180036
S11325B0FFF778F8BB68DA6A1A4B1B689A4203D9AA
S11325C0BB68DA6A174B1A60BB68DA6A13009B00AF
S11325D09B189B00144A9A18BB6804331900100016
S11325E0FFF708F807E0BB6818331A000F4B110017
S11325F01800FEF7FFFFBB68DA6A0D4B1B68DB6A45
S11326009A4205D90123FB600A4B01221A6001E0BA
S11326100023FB60FB681800BD4604B080BDC046C3
S1132620D8E4FF1FC0E4FF1FE0E2FF1F78E4FF1FB0
S1132630DCE2FF1FCCE4FF1F80B582B000AF7860FE
S11326407B68002B02D1FEF779FFFEE7054B1A6881
S11326507B681A60044B1A687B685A60C046BD46A2
S113266002B080BDD0E4FF1FBCE4FF1F80B584B07E
S113267000AF786039607B68002B02D1FEF75EFF03
S1132680FEE73B68002B02D1FEF758FFFEE7FEF79A
S1132690C5FE1C4B1B68BB603B681B68013302D141
S11326A00023FB6027E07B681A68174B1B689A427B
S11326B007D07B685A68BB689A4202D80123FB6042
S11326C019E07B685B68BA68D21A3B681B689A4257
S11326D00FD23B681A687B685968BB68CB1AD2185A
S11326E03B681A607B681800FFF7A6FF0023FB60B5
S11326F001E00123FB60FEF7A3FEFB681800BD4662
S113270004B080BDBCE4FF1FD0E4FF1F80B500AF60
S1132710024B01221A60C046BD4680BDCCE4FF1FB7
S113272080B582B000AF786000F0A4F8034B1B685A
S1132730012BF9D9FEF798FEF6E7C046E0E2FF1F49
S113274080B586B000AFF860B9607A603B60002362
S11327507B6113E0BA687B69D3181878FA6834216E
S11327607B69D3185B18021C1A70BA687B69D3188A
S11327701B78002B06D07B6901337B617B690B2BB3
S1132780E8D900E0C046FB683F22002199547B68E9
S1132790112B01D911237B60FB687A68DA62FB682C
S11327A07A681A64FB6800225A64FB6804331800D0
S11327B0FEF714FFFB6818331800FEF70FFFFB68E1
S11327C0FA681A617B681222D21AFB689A61FB6864
S11327D0FA685A62FB6800229A64FB684C22002162
S11327E09954C046BD4606B080BDC04680B582B08F
S11327F000AF00237B600CE07A6813009B009B18F9
S11328009B00144A9B181800FEF7CAFE7B6801332C
S11328107B607B68112BEFD90F4B1800FEF7C0FECD
S11328200E4B1800FEF7BCFE0D4B1800FEF7B8FE69
S11328300C4B1800FEF7B4FE0B4B1800FEF7B0FE6D
S11328400A4B054A1A600A4B044A1A60C046BD4640
S113285002B080BDE0E2FF1F48E4FF1F5CE4FF1FFD
S113286078E4FF1F8CE4FF1FA4E4FF1F70E4FF1F44
S113287074E4FF1F80B582B000AF27E0FFF76EFC61
S1132880164B1B685A425341DBB27B60FFF772FC64
S11328907B68002B1AD1FEF7C1FD104BDB68DB68A7
S11328A03B603B6804331800FEF7FCFE0C4B1B68CE
S11328B05A1E0B4B1A600B4B1B685A1E094B1A60AD
S11328C0FEF7BEFD3B68180000F080F8054B1B685E
S11328D0002BD3D1C046BD4602B080BD8CE4FF1F9F
S11328E0B8E4FF1FA0E4FF1F80B582B000AF78609A
S11328F0134B1B687A685A60124B1B687A689A42B9
S113290009D2114B1A680E4B1B68043319001000CE
S1132910FEF792FE10E00D4B1A68094B1B68043356
S113292019001000FEF788FE094B1B687A689A426A
S113293002D2074B7A681A60C046BD4602B080BD19
S1132940DCE2FF1FBCE4FF1F74E4FF1F70E4FF1F01
S113295004E0FF1F80B584B000AF02003960BB1DE6
S11329601A803B68002B07D1BB1D1B889B001800F5
S1132970FEF7EEFD030000E03B68BB60BB68002B84
S113298010D05020FEF7E4FD0300FB60FB68002B31
S113299003D0FB68BA681A6306E0BB681800FEF748
S11329A0EBFD01E00023FB60FB68002B08D0FB6813
S11329B0186BBB1D1B889B001A00A52102F04DFF5C
S11329C0FB681800BD4604B080BDC04680B582B027
S11329D000AF78607B681B6B1800FEF7CDFD7B6849
S11329E01800FEF7C9FDC046BD4602B080BDC04612
S11329F080B582B000AF0E4B1B681B68002B01D161
S1132A00012300E00023002B04D00A4B0122524290
S1132A101A6008E0064B1B68DB68DB687B607B6838
S1132A205A68044B1A60C046BD4602B080BDC04619
S1132A3070E4FF1F04E0FF1F80B582B000AF0A4BB3
S1132A401B68002B02D101237B6008E0074B1B6845
S1132A50002B02D102237B6001E000237B607B68B2
S1132A601800BD4602B080BDC4E4FF1FD8E4FF1FB8
S1132A7080B584B000AF78607B68FB607B68002B16
S1132A804AD0FB68DA6A264B1B68DB6A9A4243D257
S1132A90FB689B69002B06DB214B1B68DB6A122257
S1132AA0D21AFB689A61FB685969FB68DA6A1300F9
S1132AB09B009B189B001B4A9B18994201D1012340
S1132AC000E00023002B22D0FB6804331800FEF73B
S1132AD0E9FD134B1B68DA6AFB68DA62FB68DA6AA1
S1132AE0114B1B689A4203D9FB68DA6A0E4B1A60D1
S1132AF0FB68DA6A13009B009B189B00094A9A182A
S1132B00FB68043319001000FEF774FD04E0044B65
S1132B101B68DA6AFB68DA62C046BD4604B080BD51
S1132B20DCE2FF1FE0E2FF1FC0E4FF1F80B584B0BA
S1132B3000AF78607B68BB600023FB607B68002B80
S1132B403ED0BB685B6C002B02D1FEF7F7FCFEE7BE
S1132B50BB685B6C5A1EBB685A64BB68DA6ABB68A4
S1132B601B6C9A422CD0BB685B6C002B28D1BB68D1
S1132B7004331800FEF796FDBB681A6CBB68DA6272
S1132B80BB68DB6A1222D21ABB689A61BB68DA6A34
S1132B900E4B1B689A4203D9BB68DA6A0B4B1A6066
S1132BA0BB68DA6A13009B009B189B00084A9A18BA
S1132BB0BB68043319001000FEF71CFD0123FB6001
S1132BC0FB681800BD4604B080BDC046C0E4FF1FCA
S1132BD0E0E2FF1F80B500AF064B1B68002B04D05A
S1132BE0044B1B685A6C01325A64024B1B68180070
S1132BF0BD4680BDDCE2FF1F80B586B004AF002374
S1132C007B6000F06DFA104B1B68002B10D0C823BA
S1132C105A000E490E480023039300230293002315
S1132C200193112300930023FFF742F903007B6013
S1132C307B68002B02D1FEF781FCFEE77B6818005D
S1132C40BD4602B080BDC0460CE5FF1F18680000F9
S1132C50592D000080B58AB000AFF860B9607A6081
S1132C603B6000237B621E4B1B68002B33D0142374
S1132C70FB18BA681A601423FB187A685A60142384
S1132C80FB18FA689A60BB68052B1ADCFFF7D4FEC0
S1132C900300022B0AD1124B18683A6B1423F9185B
S1132CA00023FEF7C7FD03007B6214E00C4B186899
S1132CB01423F91800230022FEF7BCFD03007B62F5
S1132CC009E0074B18683A681423F9180023FEF743
S1132CD075FE03007B627B6A1800BD460AB080BDA6
S1132CE00CE5FF1F80B586B002AF78603960194BE0
S1132CF01B68DB68DB68FB60FB6804331800FEF7C5
S1132D00D1FCFB68DB69012B1BD1FB689A697B68EA
S1132D10D1187B683A68F86800F0AAF80300012B20
S1132D200FD17A68F8680023009300230021FFF78D
S1132D3091FF0300BB60BB68002B02D1FEF7FEFBD2
S1132D40FEE7FB685B6AFA6810009847C046BD4618
S1132D5004B080BD04E5FF1F80B584B000AF786087
S1132D600823FB18180000F043F80300FB60BA685E
S1132D70FB681100180000F003F800F0BBF8EFE75F
S1132D8080B584B000AF78603960FFF7E7F90823B5
S1132D90FB18180000F04CF80300FB60BB68002B24
S1132DA01ED13B68002B0CD17A68FB689A4208D884
S1132DB0FFF7E0F9FA687B6811001800FFF792FF4B
S1132DC010E00A4B18687A68FB68D31A1900FFF7F9
S1132DD043F8FFF7CFF9031E04D1FEF745FB01E0EA
S1132DE0FFF7C8F9C046BD4604B080BD0CE5FF1F1F
S1132DF080B584B000AF78600C4B1B681B685A42E6
S1132E005341DBB21A007B681A607B681B68002B95
S1132E1005D1064B1B68DB681B68FB6001E00023DF
S1132E20FB60FB681800BD4604B080BD04E5FF1FCD
S1132E3080B584B000AF7860FFF720FA0300FB6030
S1132E400A4B1B68FA689A4205D200F0EDF87B68D9
S1132E5001221A6002E07B6800221A60034BFA68C0
S1132E601A60FB681800BD4604B080BD10E5FF1F62
S1132E7080B586B000AFF860B9607A603B6000232B
S1132E807B61FB68BA685A60FB68FA681A61BA68C1
S1132E907B689A4212D87A683B68D21AFB689B69AD
S1132EA09A4202D301237B611BE0104B1A68FB6832
S1132EB0043319001000FEF7BFFB12E07A683B6888
S1132EC09A4206D2BA683B689A4202D301237B61D4
S1132ED007E0074B1A68FB68043319001000FEF77B
S1132EE0ABFB7B691800BD4606B080BD08E5FF1F3B
S1132EF004E5FF1F80B58CB002AF82E00823FB1805
S1132F001B68002B11DA0823FB1804337B627B6AED
S1132F10002B02D1FEF712FBFEE77B6A1A687B6A7C
S1132F2058687B6A9B68190090470823FB181B6844
S1132F30002B66DB0823FB189B683B623B6A5B69DA
S1132F40002B04D03B6A04331800FEF7ABFB3B1D97
S1132F501800FFF76DFF0300FB610823FB181B68D3
S1132F60092B4DD89A002E4BD3181B689F46082373
S1132F70FB185A683B6A9B69D1180823FB185B68E5
S1132F80FA69386AFFF774FF0300012B39D13B6AF1
S1132F905B6A3A6A100098473B6ADB69012B30D1BF
S1132FA00823FB185A683B6A9B69D218386A0023C5
S1132FB0009300230021FFF74DFE0300BB61BB69B2
S1132FC0002B1ED1FEF7BAFAFEE70823FB185A6855
S1132FD03B6A9A613B6A9B69002B02D1FEF7AEFA09
S1132FE0FEE73B6A9A69FB69D118FB69FA69386A9A
S1132FF0FFF73EFF05E03B6A1800FEF7BDFA00E06C
S1133000C046084B18680823F91800230022FEF76D
S11330103FFD031E00D071E7C046BD460AB080BD27
S1133020BC6D00000CE5FF1F80B588B002AF3FE027
S1133030294B1B68DB681B687B61274B1B68DB68BB
S1133040DB683B613B6904331800FEF72BFB3B69EB
S11330505B6A3A69100098473B69DB69012B27D109
S11330603B699A697B69D318FB60FA687B699A4269
S11330700ED93B69FA685A603B693A691A61164B82
S11330801A683B69043319001000FEF7D5FA0FE003
S11330907A6938690023009300230021FFF7DAFDE1
S11330A00300BB60BB68002B02D1FEF747FAFEE7C2
S11330B0094B1B681B68002BBAD1074B1B687B604C
S11330C0064B1A68044B1A60044B7A681A60C046AF
S11330D0BD4606B080BDC04604E5FF1F08E5FF1FDE
S11330E080B500AFFEF79AF9124B1B68002B1CD178
S11330F0114B1800FEF754FA104B1800FEF750FA63
S11331000F4B0D4A1A600F4B0C4A1A600022102113
S11331100A20FEF745FB0200064B1A60054B1B68AC
S1133120002B02D1FEF70AFAFEE7FEF789F9C04642
S1133130BD4680BD0CE5FF1FDCE4FF1FF0E4FF1F6C
S113314004E5FF1F08E5FF1F80B500AF002001F074
S11331504BFDC046BD4680BD80B500AF2D492D4A0C
S11331602D4BD3588022920013432B4A8B5029496C
S1133170284A294BD358802212011343264A8B50E4
S11331802449244A244BD358802252011343224A0F
S11331908B5020491F4A204BD3588022920113435D
S11331A01D4A8B501D4B1D4AD2680421FF310A432E
S11331B0DA601A4B194A126B0421FF310A431A636D
S11331C0174B174A52695A61154B154A52695A618D
S11331D0144B802252005A67134B134A52698021C0
S11331E089050A435A61114B802252005A61104BDF
S11331F00F4A526920210A435A61002001F0E4FA7F
S1133200042001F0E1FA00F0FBF800F01BF9C046DD
S1133210BD4680BD007004403810000000B004407A
S113322080F00F4000D0044000F10F4000C0044083
S1133230C0F00F4080B584B000AFF860B960FB1DEA
S11332401A70BB681F2B05D90A4B0B4A0B48FF2188
S113325002F074FABB689B00FA68D3181A00084B92
S11332601343FA1D127812021A60C046BD4604B018
S113327080BDC04620680000E46D00002C6800009A
S11332800000101480B582B000AF78607B68002B1A
S113329000D00CE0084B022201211800FFF7CAFFFE
S11332A0054B022202211800FFF7C4FFC046C046A6
S11332B0BD4602B080BDC0460090044080B584B0D5
S11332C000AFF860B960FB1D1A70BB681F2B05D9ED
S11332D00A4B0B4A0B48FF2102F030FABB689B00F3
S11332E0FA68D3181A00084B1343FA1D1278120215
S11332F01A60C046BD4604B080BDC046AC6800003C
S11333000C6E0000B86800000000101480B584B092
S113331000AFF860B960FB1D1A70FB68064A94465A
S113332063441A00054B1343FA1D127892061A607F
S1133330C046BD4604B080BD041000000000081D56
S113334080B582B000AF78600A00FB1C1A70FB1CC9
S11333501A787B6803481900FFF7D8FFC046BD46BA
S113336002B080BD0070044080B582B000AF7860C8
S11333700A00FB1C1A707B68FA1C12781A70C0468B
S1133380BD4602B080BDC04680B584B000AF3B00EE
S1133390180010231A00002102F05FFA3B00084ACB
S11333A01A603B0002225A723B0001229A723B00CF
S11333B01900002000F0CAFFC046BD4604B080BD1D
S11333C000127A0080B582B000AF78607B68103359
S11333D0180001F01BF97B680E331900002001F07E
S11333E02FF87B68180000F049FF034B034A1A606A
S11333F0C046BD4602B080BD08E0FF1F006CDC0281
S113340080B500AF0C4B2A211800FFF7ADFF0B4B22
S1133410002212211800FFF751FF084B002213214C
S11334201800FFF74BFFFFF7AFFF054B1800FFF73E
S1133430C9FFC046BD4680BD00E00740009004407F
S1133440F86D000080B500AF0020FFF71BFF0121DD
S11334500020FFF775FFE1235B020F221900002013
S113346000F0A0F8C046BD4680BDC04680B582B01D
S113347000AF78607B6803331A008C235B05134329
S113348008221A70C046BD4602B080BD80B582B025
S113349000AF78607B6803331A0088235B0513430D
S11334A004221A70C046BD4602B080BD80B582B009
S11334B000AF78600A00FB1C1A707B6802331A00A4
S11334C090235B0513431A00FB1C1B781B01DBB222
S11334D01370C046BD4602B080BDC04680B582B000
S11334E000AF78600A00FB1C1A707B681A009423F2
S11334F05B0513431A00FB1C1B785B01DBB21370E2
S1133500C046BD4602B080BD80B582B000AF7860D1
S11335107B6803331A008C235B05134308221A705B
S1133520C046BD4602B080BD80B582B000AF7860B1
S11335307B6803331A0088235B05134304221A7043
S1133540C046BD4602B080BD80B582B000AF786091
S11335500A00FB1C1A707B6802331A0090235B0577
S113356013431A00FB1C1B781B01DBB21370C0460B
S1133570BD4602B080BDC04680B582B000AF786061
S11335800A00FB1C1A707B681A0094235B05134322
S11335901A00FB1C1B785B01DBB21370C046BD46EE
S11335A002B080BD90B58DB000AFF860B960FB1D6E
S11335B01A704B4B1B78002B01D003238CE0484B33
S11335C0FA1D12781A70FB68DAB2454B5A70FB1D6B
S11335D01B780F2B3DD0102B77D11423FB18414AB5
S11335E013CA13C31423FB18FA689200D358FB625E
S11335F03B4BFA6A5A60FB68180001F02DF9FB682E
S1133600180001F0CBF80300BB62BA68B96AFB6A20
S1133610180001F083FFFB6A00211800FFF746FF42
S1133620FB6A0021180001F0B1FFFB6A00211800B9
S1133630FFF754FFFB6A1800FFF718FFFB6A180036
S1133640FFF724FF264B284A9A60254B274ADA6065
S11336503DE0274B3B61FB689B0030229446BC4411
S11336606344203B1B687B621D4B7A6A5A60FB688B
S1133670180001F0CFF8FB68180001F05BF80300B4
S11336803B62BA68396A7B6A180001F029F97B6ADF
S113369000211800FFF758FF7B6A0021180001F091
S11336A0C9F97B6A00211800FFF766FF7B6A1800DE
S11336B0FFF72AFF7B6A1800FFF736FF084B0D4A15
S11336C09A60074B0C4ADA6001E0012304E0FB68CE
S11336D0DAB2034B5A7000231800BD460DB090BDFA
S11336E014E5FF1F38690000455600008D560000A0
S11336F000A00640814A0000C94A000090B585B088
S113370000AFF860B9607A60BB68002B02D1012376
S11337105B4218E0FB68012B05D0FB68022B02D04A
S113372001235B420FE00A4B1B78002B02D10123DB
S11337305B4208E0064B9C68054B5B687A68B96895
S11337401800A0477B681800BD4605B090BDC04670
S113375014E5FF1F90B585B000AFF860B9607A60DA
S1133760FB68002B02D001235B420FE0094B1B785E
S1133770002B02D101235B4208E0064BDC68054BB9
S11337805B687A68B9681800A0477B681800BD4672
S113379005B090BD14E5FF1F0FB480B584B002AF2F
S11337A00E4B1B78002B02D101235B420FE0142344
S11337B0FB183B60386901235A4209493B6800936E
S11337C00300002000F030F803007B607B681800E1
S11337D0BD4602B080BC08BC04B0184714E5FF1F06
S11337E0E537000090B585B000AF786039607B683C
S11337F0DAB20F23FB181A700A4B1B78002B02D184
S113380001235B4209E0074B9C68064B5B680F226F
S1133810B91801221800A04700231800BD4605B0BE
S113382090BDC04614E5FF1F80B5A4B004AFF86096
S1133830B9607A603B600023FB617B683B657B6811
S1133840013301D1CD4B7B603B68FB673FE3FB6CED
S1133850252B08D0F968FA6CBB6810009847FB69FF
S11338600133FB6130E35B23FB1801221A70002350
S1133870FB6600233B672BE0FB6F0133FB67FB6FA9
S11338801B78203B102B1DD89A00BD4BD3181B6806
S11338909F46FB6E01221343FB6619E0FB6E022276
S11338A01343FB6614E0FB6E04221343FB660FE034
S11338B0FB6E08221343FB660AE0FB6E10221343DF
S11338C0FB6605E0FB6F013BFB6701233B67C046DA
S11338D03B6F002BD0D00023BB6600233B671AE06C
S11338E0FB6F0133FB67FB6F1B78FB64FB6C303BA6
S11338F0092B0AD8BA6E13009B009B185B001A00B0
S1133900FB6CD318303BBB6605E0FB6F013BFB67E8
S113391001233B67C0463B6F002BE1D006237B6548
S1133920FB6F0133FB67FB6F1B782E2B23D1002326
S11339307B6500233B671AE0FB6F0133FB67FB6F7A
S11339401B78FB64FB6C303B092B0AD87A6D13009F
S11339509B009B185B001A00FB6CD318303B7B6503
S113396005E0FB6F013BFB6701233B67C0463B6FF0
S1133970002BE1D002E0FB6F013BFB67FB6F0133DF
S1133980FB67FB6F1B78682B04D06C2B0DD04C2B82
S11339901AD015E0FB6F0133FB67FB6F1B78682BB4
S11339A014D0FB6F013BFB6710E0FB6F0133FB6737
S11339B0FB6F1B786C2B0BD0FB6F013BFB6707E0A5
S11339C0FB6F013BFB6704E0C04602E0C04600E039
S11339D0C046FB6F0133FB67FB6F1B78FB64FB6C1A
S11339E0583B202B00D963E29A00664BD3181B681E
S11339F09F468823FB181B681A1D882179180A60C2
S1133A001B68BB611823F9182023F8185B23FB18E3
S1133A101B7800930A23012200F06AFA03007B67F3
S1133A202023FA187B6FD318BB67BB69002B05DA18
S1133A302D237B667B6F01337B6715E0FB6E0222CF
S1133A40134005D02B237B667B6F01337B670BE030
S1133A50FB6E0422134005D020237B667B6F013369
S1133A607B6701E000237B6600233B66FB6E082234
S1133A7013401DD07B6E002B07D0F9687A6EBB68AB
S1133A8010009847FB690133FB6101233B66BA6E62
S1133A901C23F818796F3B1D0293FB680193BB68E4
S1133AA000930300302000F0A9FABB6E7B671EE090
S1133AB0FB6E012213401AD1BA6E1C23F818796FD9
S1133AC03B1D0293FB680193BB6800930300202015
S1133AD000F094FA7B6E002B07D0F9687A6EBB680D
S1133AE010009847FB690133FB6101233B663B6E81
S1133AF0002B00D04CE17B6E002B00D148E1F9682B
S1133B007A6EBB6810009847FB690133FB613FE1A3
S1133B105B23FB1800221A708823FB181B681A1DEC
S1133B20882179180A601B687B611423F918202303
S1133B30F8185B23FB181B7800931023002200F075
S1133B40D7F903007B672023FA187B6FD318BB6770
S1133B5000233B66FB6E0822134030D0FB6E10221C
S1133B6013401BD0FA68BB681100302098475B23D0
S1133B70FB181B78002B07D0582206E0FEFFFF7FBE
S1133B80206E0000646E00007822F968BB681000A3
S1133B909847FB690233FB6101233B66BA6E1C2321
S1133BA0F818796F3B1D0293FB680193BB6800937F
S1133BB00300302000F022FABB6E7B6732E0FB6E1C
S1133BC0012213402ED1FB6E1022134002D07B6FD2
S1133BD002337B67BA6E1C23F818796F3B1D02937E
S1133BE0FB680193BB6800930300202000F006FAF1
S1133BF0FB6E1022134015D0FA68BB681100302008
S1133C0098475B23FB181B78002B01D0582200E057
S1133C107822F968BB6810009847FB690233FB619E
S1133C2001233B66FB6E1022134000D1B2E03B6ED1
S1133C30002B00D0AEE0FA68BB6811003020984732
S1133C405B23FB181B78002B01D0582200E078225C
S1133C50F968BB6810009847FB690233FB617B6F0E
S1133C6002337B6796E08823FB181B681A1D8821A2
S1133C7079180A601B687B611423F9182023F8184B
S1133C805B23FB181B7800930823002200F030F913
S1133C9003007B674FE08823FB181B681A1D8821EB
S1133CA079180A601B687B611423F9182023F8181B
S1133CB05B23FB181B7800930223002200F018F901
S1133CC003007B6737E08823FB181B681A1D8821D3
S1133CD079180A601B687B618823FB181B681A1D0E
S1133CE0882179180A601B687B611423F918202342
S1133CF0F8185B23FB181B7800931023002200F0B4
S1133D00F7F803007B6716E08823FB181B681A1D6D
S1133D10882179180A601B687B611423F918202311
S1133D20F8185B23FB181B7800930A23002200F089
S1133D30DFF803007B672023FA187B6FD318BB6777
S1133D40FB6E0822134010D0BA6E1C23F818796F4A
S1133D503B1D0293FB680193BB6800930300302072
S1133D6000F04CF9BB6E7B6722E0FB6E012213402E
S1133D701ED1BA6E1C23F818796F3B1D0293FB68A1
S1133D800193BB6800930300202000F037F90FE093
S1133D90C0460DE0C0460BE0BB6F5A1EBA671B78E5
S1133DA01800FA68BB6811009847FB690133FB618E
S1133DB0BB6F1B78002BEFD1FB6E0122134000D1A7
S1133DC07FE0BA6E1C23F818796F3B1D0293FB68E1
S1133DD00193BB6800930300202000F00FF970E00A
S1133DE08823FB181B681A1D882179180A601B6830
S1133DF0DBB2BB64F968BA6CBB6810009847FB6916
S1133E000133FB6160E08823FB181B681A1D8821BD
S1133E1079180A601B68FB65FB6D002B53D0FB6DA2
S1133E201800FCF787FB03007B67FB6E012213403D
S1133E301AD1BA6E1C23F818796F3B1D0293FB68E4
S1133E400193BB6800930300202000F0D7F80BE037
S1133E50FB6D5A1CFA651B781800FA68BB681100E0
S1133E609847FB690133FB61FB6D1B78002BEFD195
S1133E70FB6E0122134026D0BA6E1C23F818796F0A
S1133E803B1D0293FB680193BB6800930300202051
S1133E9000F0B4F817E08823FB181B681A1D88216A
S1133EA079180A601B687B64FA697B6C1A600BE002
S1133EB0F968FA6CBB6810009847FB690133FB6131
S1133EC002E0C04600E0C046FB6F0133FB67FB6FB6
S1133ED01B78FB64FB6C002B00D0B8E47B68002BE0
S1133EE001D0FB6900E03B6D1800BD4620B080BDE9
S1133EF080B58CB000AFF860B9607A603B60002395
S1133F00FB61FB68BB61BB695A1CBA6100221A7071
S1133F107B68002B32D0BB681B68FB62FB6A002BFA
S1133F2028D1BB6930221A70FB690133FB6160E060
S1133F303968F86AFCF790FB03007B617B693A6897
S1133F405343FA6AD31ABB62BB6A002B04DABB6A16
S1133F503022D31ABB6202E0BB6A3033BB627B6996
S1133F60FB62BB695A1CBA61BA6AD2B21A70FB69A5
S1133F700133FB61FB6A002BDAD13AE0BB681B68B2
S1133F807B627B6A002B31D1BB6930221A70FB69DA
S1133F900133FB612DE03B681900786AFCF7D2FA23
S1133FA003003B613B683A6953437A6AD31A3B6224
S1133FB03B6A092B03D83B6A30333B620BE038235E
S1133FC0FB181B78002B01D0412300E061233A6ADF
S1133FD09B180A3B3B623B697B62BB695A1CBA6112
S1133FE03A6AD2B21A70FB690133FB617B6A002B17
S1133FF0D1D1FB691800BD460CB080BD80B586B038
S113400000AFF860B9607A603B60BB687B610EE02A
S1134010FB68DBB218007A6A3B6A110098473B6878
S11340201B685A1C3B681A607B6901337B617A699F
S11340307B689A42ECDBC046BD4606B080BDC046F4
S113404080B500AF034A88235B010021D150C046EC
S1134050BD4680BD0070044080B588B000AF274BDA
S1134060FB60274A274B9A4216D00023FB610AE0E3
S1134070244BFA699200D158214BFA699200D1502D
S1134080FB690133FB61FB689A08FB699A42EFD82C
S11340901D4B1B4A9A6002E01B4B1A4A9A601B4B49
S11340A0BB611B4B7B611B4BBB60BA687B69D31A3A
S11340B0FB6107E0BB695A1CBA617A69511C7961DA
S11340C012781A70FB695A1EFA61002BF2D1124B56
S11340D03B61124B7B607A683B69D31AFB6104E055
S11340E03B695A1C3A6100221A70FB695A1EFA6134
S11340F0002BF5D1C046BD4608B080BD00000000CD
S1134100000000000000000000ED00E000E0FF1FE0
S113411088700000047100007CE0FF1F38E5FF1F79
S113412080B582B000AF78600A00FB1C1A707B680F
S11341301A00064B13431A00FB1C1B789B01DBB2CD
S11341401370C046BD4602B080BDC04600000813CF
S113415090B583B000AF78600C0010001900FB1C10
S1134160221C1A70BB1C021C1A707B1C0A1C1A70BD
S11341707B681B78DBB203221340DAB2FB1C1B788A
S11341809B01D9B2BB1C1B78DB00DBB23820034097
S1134190DBB20B43D9B27B1C1B789B00DBB204203F
S11341A00340DBB20B43DBB21343DAB27B681A7011
S11341B0C046BD4603B090BD80B582B000AF786004
S11341C07B6806331A00044B13431B78DBB21800D8
S11341D0BD4602B080BDC0460000081180B582B063
S11341E000AF78607B6806331A0090235B051343A5
S11341F01B78DBB21800BD4602B080BD80B582B02A
S113420000AF78607B6806331A0084235B05134390
S11342101B78DBB25A1E9341DBB21800BD4602B0D4
S113422080BDC04680B582B000AF78600A00FB1C38
S11342301A707B681A009C235B0513431A00FB1C4D
S11342401B78DB01DBB21370C046BD4602B080BDF3
S113425080B582B000AF78600A00FB1C1A707B68DE
S11342601A0094235B0513431A00FB1C1B785B01A3
S1134270DBB21370C046BD4602B080BDF0B587B056
S113428002AF78600F23FB1800221A700E23FB186C
S113429000221A700E23FB181B782B4A19001000F9
S11342A000F04CFD7B689A79274800230221FFF730
S11342B04FFFC046244B1800FFF790FF031EF9D1AF
S11342C0C046214B1800FFF777FF0300022BF8D1FB
S11342D07B68DD7A7B681B7B0C22BC180F22BA1822
S11342E010780E22BA181178174E00932B00020092
S11342F0300001F049F8030023800C23FB181B88CD
S1134300002B19D1104B00211800FFF709FFC046FC
S11343100D4B1800FFF750FF0300032BF8D17B6807
S11343209B78002B08D07B6819797B685A797B6865
S1134330DB78054800F08AFE0C23FB181B88180064
S1134340BD4605B0F0BDC0460040064080B584B00F
S113435000AF786039607B68002B05D0314B324A5E
S11343603249334801F0EAF90023FB603B689B7A49
S1134370012B28D13B681B79002B01D0082200E0D7
S113438000223B685B79002B01D0042300E000236A
S11343901A433B689B79002B01D0022300E00023E1
S11343A01A433B68DB79002B01D0012300E0002392
S11343B01343FB601F4B7A689200D358FA681100CC
S11343C0180001F069F83B680B331A007B68110090
S11343D0180000F035F83B68597A3B681A7A3B6854
S11343E09B7A154800F046FF3B689B7A012B0FD15E
S11343F03B68DB7A002B0BD0C0460F4B1800FFF74D
S1134400FDFE03001A0001235340DBB2002BF4D15C
S11344103B681A68094B1A6000231800BD4604B0B3
S113442080BDC046D8690000E86E00009E0300000D
S11344305C690000FC6E00000040064028E5FF1F98
S113444080B582B000AF786039600C4B7A68920016
S1134450D2583B681B7819001000FFF7E3FE074BA6
S11344607A689200D2583B685B7819001000FFF715
S1134470EFFEC046BD4602B080BDC046FC6E0000E3
S113448080B582B000AF78600A00FB1C1A707B68AC
S1134490104A9A18FB1C1B785B09DBB20E498C4648
S11344A063449B00D3181900FB1C1B78DA05F8231E
S11344B01B0513400B43802252051343FA1C127848
S11344C01F210A40012191400A001A60C046BD46DE
S11344D002B080BD34100000FDFFFF3F80B582B004
S11344E000AF786039607B68054A944663441A00DB
S11344F0044B13431B68DBB21800BD4602B080BDF9
S1134500041000000000081D80B582B000AF786080
S11345100A00FB1C1A707B681A00054B1343FA1C33
S1134520127892041A60C046BD4602B080BDC046EF
S11345300000081980B582B000AF78600A00FB1C47
S11345401A707B68074A944663441A00C0235B05CB
S11345501343FA1C127812041A60C046BD4602B016
S113456080BDC0460410000080B582B000AF786002
S11345707B68064A944663441A00C0235B051343D0
S11345801B68DBB21800BD4602B080BD04100000F9
S113459080B582B000AF78607B68064A9446634475
S11345A01A00054B13431B68DBB21800BD4602B06A
S11345B080BDC046441000000000181E80B582B0C3
S11345C000AF78607B68064A944663441A00054B42
S11345D013431B68DBB21800BD4602B080BDC04661
S11345E0441000000000101880B582B000AF78605D
S11345F07B681A009C235B0513431B78DBB25A1EAD
S11346009341DBB21800BD4602B080BD80B584B0D2
S113461002AF78607B6899787B68DB780B480093FD
S11346200023002200F04EFF7B681B78074A190024
S11346301000FFF77FFF7B685B78044A19001000C5
S1134640FFF762FFC046BD4602B080BD0070044063
S1134650B0B500AF094B180000F0CEFD0400084BC4
S11346601800FFF795FF0300013319002000FBF742
S113467069FF03001800BD46B0BDC04600400640B7
S113468000700440B0B500AFFFF7E2FF0400074B31
S11346901800FFF793FF0300013319002000FBF714
S11346A051FF03001800BD46B0BDC0460070044071
S11346B090B583B000AFFC1C124B1800FFF754FFF9
S11346C003002370FB1C1B78002B02D0012B07D0A6
S11346D010E00D4B180000F01BFC03007B600CE0A5
S11346E0094B180000F008FD03007B607B685B0841
S11346F07B6002E000237B60C0467B681800BD46F7
S113470003B090BD007004400040064080B500AF87
S1134710064B1B681800FFF767FF031E02D0044B0B
S11347201B6800E000231800BD4680BDFC6E00003D
S113473028E5FF1F90B585B000AF78600B23FC1807
S11347407B68144A19001000FFF7C8FE03002370A9
S11347500B23FB181B78022B08D0032B0BD0012B47
S113476010D1FFF7A5FF0300FB600EE0FFF7CEFFBB
S11347700300FB6009E0084B180000F009FD03008A
S1134780FB6002E00023FB60C046FB681800BD46E6
S113479005B090BD007004400040064080B584B070
S11347A000AF78600023FB607B68022B04D8FFF71E
S11347B069FF0300FB6002E00023FB60C046FB6866
S11347C01800BD4604B080BD80B582B000AF7860EB
S11347D07B68042B05D9094B094A0A490A4800F0A9
S11347E0ADFF0A4A7B68D3181B78094A19001000E8
S11347F0FFF746FEC046BD4602B080BD806A000099
S11348000C6F000063020000286A0000006F0000C3
S11348100070044080B582B000AF78607B68002BE4
S113482005D0084B084A0949094800F087FF6A2265
S1134830084B11001800FFF723FEC046BD4602B026
S113484080BDC0469C6B0000286F0000710300000F
S1134850286A00000070044080B582B000AF786020
S11348607B68022B05D9094B094A0A490A4800F01A
S113487065FF0A4A7B68D3181B78094A190010009F
S1134880FFF7FEFDC046BD4602B080BDD86B0000F8
S1134890446F000087030000286A0000086F0000CE
S11348A00070044080B582B000AF78600A00FB1C41
S11348B01A707B68FA1C1278DA71C046BD4602B0E1
S11348C080BDC04680B582B000AF786039607B6837
S11348D0DB79DAB23B681A70C046BD4602B080BDCF
S11348E080B58CB000AFF860B9607A600423FB62D5
S11348F07B68FA6A53431900B868FBF723FE030088
S1134900BB62FB6ABA6A53431900B868FBF71AFE24
S11349100300BB61BA697B689A4204D9BA697B68AF
S1134920D31AFB6103E07A68BB69D31AFB612723BE
S1134930FB1805221A703CE02723FB181B787A68C1
S113494053431900B868FBF7FDFD03001A00162352
S1134950FB181A802723FB181B781622BA18128812
S113496053431900B868FBF7EDFD0300BB61BA6956
S11349707B689A4204D9BA697B68D31A3B6203E024
S11349807A68BB69D31A3B623A6AFB699A4209D8CE
S11349903B6AFB612723FB181B78FB621623FB1879
S11349A01B88BB622723FB181A782723FB180132C4
S11349B01A702723FB181B78202BBDD97B68642130
S11349C01800FBF7BFFD03001A0013005B009A18E0
S11349D0FB699A4229D9FB6A032B0AD9FB6A072B84
S11349E007D8FB680B331A0080231B0513430222EC
S11349F01A70FB680A331A0081235B0513431A00FB
S1134A00FB6ADBB2013BDBB21370FB681A00812343
S1134A105B0513431A00BB6A1B0ADBB21370BB6A43
S1134A20DAB2FB685A70002300E002231800BD4686
S1134A300CB080BD80B582B000AF78600A00FB1C6A
S1134A401A707B6802331A0084235B051343190030
S1134A50FB1C1B7801229343DBB20B707B6802338F
S1134A601A0080235B0513431900FB1C1B780122E9
S1134A701340DBB20B70C046BD4602B080BDC046D9
S1134A8080B584B000AFF860B9607A6013E0C046C6
S1134A90FB6804331A009C235B0513431B78DBB2C9
S1134AA0002BF5D0BB685A1CBA601A78FB68110059
S1134AB01800FFF7F7FE7B685A1E7A60002BE6D1D8
S1134AC0C046BD4604B080BD80B586B000AFF86076
S1134AD0B9607A601723FB1800221A702EE0C046D2
S1134AE0FB6804331A0094235B0513431B78DBB281
S1134AF0002BF5D0BB685A1CBA60FA681900100084
S1134B00FFF7E0FEFB6804331A008C235B051343B4
S1134B101B78DBB21722BA1817217918097811709B
S1134B20002B0BD0FB6804331A008C235B05134362
S1134B3008221A701723FB180F221A707B685A1E5A
S1134B407A60002BCBD11723FB181B781800BD46C5
S1134B5006B080BD80B582B000AF78607B681A0073
S1134B609C235B05134380221A60C046BD4602B0F5
S1134B7080BDC04680B582B000AF78600A00FB1CDF
S1134B801A707B680E4A9A18FB1C1B785B09DBB20F
S1134B900C498C4663449B00D3181900FB1C1B78FA
S1134BA0DA05F8231B0513400B43802252051343F7
S1134BB01B685A1E9341DBB21800BD4602B080BD8B
S1134BC034100000FDFFFF3F80B582B000AF786075
S1134BD0044B80211800FFF7CDFF03001800BD46E9
S1134BE002B080BD0070044090B585B000AF78601D
S1134BF07B68002B08D01B4C1B4A5E23FF33190033
S1134C001A48230000F09AFD7B681800FFF7DCFFC8
S1134C10031E07D1164C144AAF235900134823002E
S1134C2000F08CFD134B7A689200D358FB60FB684C
S1134C301800FFF78FFF104B7A689200D358002BAF
S1134C400CD00D4B7A689200D3581B68002B05D00A
S1134C50094B7A689200D3581B689847C046BD46F2
S1134C6005B090BD086D0000606F0000286D000065
S1134C70786D0000786F000024E5FF1F80B582B0D6
S1134C8000AF78607B6806331A00044B13431B782B
S1134C90DBB21800BD4602B080BDC046000008115A
S1134CA080B582B000AF78600A00FB1C1A707B6884
S1134CB001331A0080235B0513431A00FB1C1B7885
S1134CC01370C046BD4602B080BDC04680B582B0F8
S1134CD000AF78607B6806331A0080235B051343BA
S1134CE01B78DBB21800BD4602B080BD80B582B02F
S1134CF000AF78607B6806331A0094235B05134386
S1134D001B78DBB25A1E9341DBB21800BD4602B0D9
S1134D1080BDC04680B582B000AF78607B68063342
S1134D201A0084235B0513431B78DBB25A1E93419C
S1134D30DBB21800BD4602B080BDC04680B582B06B
S1134D4000AF78600A00FB1C1A707B6801331A00FC
S1134D5088235B0513431B78DBB2002B0BD0C046C2
S1134D607B681800FFF7D6FF03001A0001235340A5
S1134D70DBB2002BF4D1C046BD4602B080BDC046B4
S1134D8080B582B000AF7860024B1B681800BD4646
S1134D9002B080BD28E5FF1F80B584B000AFF86085
S1134DA0B9601900FB1D1A70BB1D0A1C1A70FB1D8B
S1134DB01B78BA68DA401300BB60BB1D1B78002B5C
S1134DC021D0FB1D1B78062B0AD002DC002B17DB3D
S1134DD002E0072B0CD013E0BB685B09BB6012E058
S1134DE0BB6814211800FBF7ADFB0300BB600AE0AD
S1134DF0BB680C211800FBF7A5FB0300BB6002E0B5
S1134E000023BB60C046BB681800BD4604B080BD2B
S1134E1090B587B002AF78607B681A0088235B0581
S1134E2013431B78DBB2002B2ED17B681800FFF7ED
S1134E30A7FF0300FB607B681A00174B13431A009B
S1134E400B23FB1812781A707B6801331A00134B7A
S1134E5013431A000A23FB1812781A700923FB184B
S1134E6000221A700A23FB181C780B23FB181A78EB
S1134E70F96878680923FB181B7800932300FFF76F
S1134E808BFF0300FB6002E0054B1B68FB60FB68C3
S1134E901800BD4605B090BD000090110000081236
S1134EA010E0FF1F80B584B000AFF860B96019004E
S1134EB0FB1D1A70BB1D0A1C1A70FB1D1B78002BEE
S1134EC006D0BA6880231B029A420BD9002315E04E
S1134ED0BB680C4A934203D9BB680B4A934201D97D
S1134EE000230BE0BB1D1978FB1D1A78074B490002
S1134EF08A185200D35A1A00BB6853431800BD469F
S1134F0004B080BD117A0000979800007C6F000007
S1134F1090B585B000AF78607B681800FFF7E6FEB7
S1134F20031E01D000232DE07B681800FFF770FFFB
S1134F300300FB60FB68002B01D1002322E07B68A7
S1134F4003331A009C235B0513431A000B23FB183D
S1134F5012781A707B6803331A000C4B13431A003F
S1134F600A23FB1812781A700A23FB181C780B23E7
S1134F70FB181A78F96878682300FFF793FF030099
S1134F80FB60FB681800BD4605B090BD00008812A8
S1134F9080B582B000AF78600A00FB1C1A707B6891
S1134FA008331A00284B13431B78DBB2FA1C12781F
S1134FB09A4245D07B6801331A0080235B05134372
S1134FC01B78DBB2002B11D17B681B7ADBB20F227A
S1134FD09343DAB2FB1C1B78DB18DBB20E210B40C7
S1134FE0DBB21343DAB27B681A7229E07B680021D2
S1134FF01800FFF755FEC0467B681800FFF766FEF1
S1135000031EF9D17B681B7ADBB20F229343DAB219
S1135010FB1C1B78DB18DBB20E210B40DBB2134305
S1135020DAB27B681A727B6801211800FFF738FE38
S1135030C0467B681800FFF749FE0300012BF8D136
S1135040C046BD4602B080BD0000901090B583B04C
S113505000AF78600C0010001900FB1C221C1A70B1
S1135060BB1C021C1A707B1C0A1C1A70FB1C1B78CC
S1135070012B14D1BB1C1A787B6811001800FFF7B0
S113508087FF7B6801211800FFF70AFEC0467B6892
S11350901800FFF71BFE0300012BF8D10BE07B681F
S11350A000211800FFF7FCFDC0467B681800FFF7DD
S11350B00DFE031EF9D17B681B78DBB203229343F8
S11350C0DAB27B1C1B781343DBB202221343DAB23D
S11350D07B681A70C046BD4603B090BD80B582B0EF
S11350E000AF78607B681800FFF74AFE03001800E1
S11350F0BD4602B080BDC04680B584B000AF7860C4
S11351007B6806331A0094235B0513431B78DBB2D8
S1135110002B0BD17B6804331A0098235B051343DF
S11351201B78DBB2002B01D100232DE07B68180033
S1135130FFF7D4FF0300FB607B6804331A0081236C
S11351405B0513431B78DAB20B23FB1801321A7088
S11351500B23FB181B781900F868FBF7F3F903001D
S1135160FB607B6805331A0081235B0513431B78BE
S1135170DAB20B23FB1818321A700B23FB181A78B7
S1135180FB685343FB60FB681800BD4604B080BD58
S113519080B584B000AF78607B681A0084235B0517
S11351A013431B78DBB2002B01D1002319E07B6889
S11351B001331A0080235B0513431B78DBB2002BF9
S11351C003D10A4B1B68FB600AE0094B1B687A6831
S11351D008321100074A0A431278D2B2D340FB6066
S11351E0FB681800BD4604B080BDC04610E0FF1F38
S11351F00CE0FF1F0000901090B585B000AF786000
S11352000B23FC187B681800FFF738FD030023709C
S11352100B23FB181B78012B15D002DC002B0BD0C1
S11352201FE0022B16D0032B1BD17B681800FFF75D
S113523063FF0300FB6017E07B681800FFF768FE5C
S11352400300FB6010E07B681800FFF7A1FF030078
S1135250FB6009E07B681800FFF792FD0300FB6028
S113526002E00023FB60C046FB681800BD4605B0A1
S113527090BDC04690B583B000AF78600C001000BC
S11352801900FB1C221C1A70BB1C021C1A707B1C0C
S11352900A1C1A707B685B78DBB23C229343DAB257
S11352A0FB1C1B781B01DBB230210B40D9B2BB1CA9
S11352B01B78DB00DBB208200340DBB20B43D9B21E
S11352C07B1C1B789B00DBB204200340DBB20B4346
S11352D0DBB21343DAB27B685A70C046BD4603B0F2
S11352E090BDC04680B582B000AF78607B6806335D
S11352F01A00044B13431B78DBB21800BD4602B0FE
S113530080BDC0460000081180B582B000AF78604F
S11353100A00FB1C1A707B6804331A0098235B058F
S113532013431A00FB1C1B789B01DBB21370C046AD
S1135330BD4602B080BDC04680B582B000AF786083
S11353407B6806331A0098235B0513431B78DBB292
S11353505A1E9341DBB21800BD4602B080BDC04660
S113536080B582B000AF78607B6806331A0094235E
S11353705B0513431B78DBB25A1E9341DBB2180062
S1135380BD4602B080BDC04690B583B000AF786022
S11353900C0010001900FB1C221C1A70BB1C021C00
S11353A01A707B1C0A1C1A707B6801331A00842350
S11353B05B05134300221A707B681A00354B1343B4
S11353C080221A70C0467B681800FFF78BFF030029
S11353D0022BF8D1FB1C1A787B6811001800FFF728
S11353E0ADFC7B6800211800FFF78EFF7B68053356
S11353F01A0098235B05134300221A70C0467B6889
S11354001800FFF7ADFF031EF9D17B681B79DBB2EF
S11354101F229343DAB27B1C1B781F210B40DBB2A3
S11354201343DAB27B681A717B685B79DBB21F22A3
S11354309343DAB21823FB181B781F210B40DBB20D
S11354401343DAB27B685A717B6805331A009823D8
S11354505B05134340221A70C0467B681800FFF7AF
S11354607FFF03001A0001235340DBB2002BF4D169
S1135470C0467B681800FFF75FFF03001A00012392
S11354805340DBB2002BF4D100231800BD4603B017
S113549090BDC0460000081380B582B000AF7860AC
S11354A039607B681B78DBB20F229343DAB23B6826
S11354B0DBB21343DAB27B681A70C046BD4602B051
S11354C080BDC04690B585B000AF78600C00100078
S11354D01900FB1C221C1A70BB1C021C1A707B1CBA
S11354E00A1C1A700023FB60FB1C1B781B07FA685C
S11354F01343FB602023FB181B781A04E023DB0210
S11355001340FA681343FB607B680349FA685A50F6
S1135510C046BD4605B090BD4410000080B586B0BD
S113552000AFF860B9607A607B681B011900B86845
S1135530FBF708F803001A001623FB181A80162339
S1135540FB181B88104A934204D81623FB181B88A7
S1135550002B01D1022313E0FB681A0081235B05B1
S113556013431A001623FB181B881B0A9BB2DBB2D9
S113557013701623FB181B88DAB2FB685A700023D9
S11355801800BD4606B080BDFF1F000080B582B084
S113559000AF78600A00FB1C1A707B6802331A00A3
S11355A084235B0513431900FB1C1B7801229343DE
S11355B0DBB20B707B6802331A0080235B05134354
S11355C01900FB1C1B7801221340DBB20B70C04690
S11355D0BD4602B080BDC04680B584B000AF7860DF
S11355E00A00FB1C1A700F23FB187A6812791A70D0
S11355F00F23FB181A780F23FB1801321A707B68EB
S1135600FA1C1278DA71C046BD4604B080BDC046AB
S113561080B584B000AF786039600F23FB187A68D6
S113562012791A700F23FB181A780F23FB18013212
S11356301A707B68DB79DAB23B681A70C046BD46E3
S113564004B080BD80B584B000AFF860B9607A6002
S113565013E0C046FB6804331A009C235B05134324
S11356601B78DBB2002BF5D0BB685A1CBA601A78E1
S1135670FB6811001800FFF7AFFF7B685A1E7A60C1
S1135680002BE6D1C046BD4604B080BD80B586B0CF
S113569000AFF860B9607A601723FB1800221A7013
S11356A01623FB1800221A7037E0C046FB68043347
S11356B01A0094235B0513431B78DBB2002BF5D04F
S11356C0BB685A1CBA60FA6819001000FFF7A0FF03
S11356D0FB6804331A008C235B0513431B78DBB28D
S11356E01722BA181721791809781170002B14D0D1
S11356F01623FB18FA6812791A701623FB18FA6835
S1135700D2791A701623FB181A781623FB18013263
S11357101A701723FB180F221A707B685A1E7A60BE
S1135720002BC2D11723FB181B781800BD4606B006
S113573080BDC046C317C018584070477FB51D00D0
S11357400A4B06001B68D868002A02D1084C2300C3
S113575001E01300074C0293009133002A0006492C
S1135760019400F027F800F0DFFCC04674E0FF1F4E
S1135770C76F00008C6F0000996F0000014B186820
S11357807047C04674E0FF1F084B10B50400002B9F
S113579002D0002100E000BF054B1868836A002B8B
S11357A000D09847200000F0F9FFC0460000000038
S11357B0C86F00000EB403B5010003AB044804CB6A
S11357C00068019300F026F902B008BC03B0184742
S11357D074E0FF1F0E4B70B500251E000D4CE41A3B
S11357E0A410A54204D0AB00F35898470135F8E75C
S11357F001F036FC084B00251E00084CE41AA410E6
S1135800A54204D0AB00F35898470135F8E770BDC2
S113581080700000807000008070000084700000C0
S113582010B5034B0100186800F06CF810BDC046B9
S113583074E0FF1F10B5034B0100186800F016F860
S113584010BDC04674E0FF1F002310B59A4203D078
S1135850CC5CC4540133F9E710BD030082189342B1
S113586002D019700133FAE77047000070B50500E3
S1135870002944D00C1F2368002B00DAE418280008
S113588000F051FE1E4A13681100002B02D1636020
S1135890146031E0A3420DD92268A018834203D1D9
S11358A018685B688218226063600C6024E0A2427E
S11358B003D813005A68002AF9D11E689819A04227
S11358C00BD12168711858181960824214D11068DC
S11358D05268411819605A600EE0A04202D90C23A4
S11358E02B6009E021686018824203D11068526875
S11358F04118216062605C60280000F015FE70BDF4
S113590030E5FF1F032370B5CD1C9D430835060009
S11359100C2D01D20C2501E0002D01DBA94202D996
S11359200C23336048E0300000F0FDFD234B1C687D
S11359301A002100002913D00B685B1B0DD40B2B1C
S113594002D90B60CC181EE08C4202D1636813604C
S11359501AE04B6863600C0016E00C004968E9E744
S1135960174C2368002B03D1300000F0FFFA2060AD
S11359702900300000F0FAFA431C18D00323C41C99
S11359809C43A0420DD12560300000F0CDFD2000E5
S113599007220B30231D9043C31A0ED05A42E25003
S11359A00BE0211A300000F0E1FA431CEBD10C2388
S11359B03000336000F0B8FD002070BD30E5FF1FFB
S11359C02CE5FF1F936810B5013B9360002B05DAAB
S11359D09469A34208DBCBB20A2B05D01368581C88
S11359E010601970C8B201E000F0D2FA10BDF8B529
S11359F006000F001400D518AC4208D021783A00F4
S1135A003000FFF7DFFF0134431CF5D100E0002034
S1135A10F8BD0000F0B59FB006000F000292059398
S1135A20002804D08369002B01D100F079FC7F4B5E
S1135A309F4201D1776808E07D4B9F4201D1B7684E
S1135A4003E07C4B9F4200D1F768BB891B070AD552
S1135A503B69002B07D0002306AD6B6120336B76C6
S1135A601033AB763DE03900300000F0E7FA00284F
S1135A70F1D001204042D6E0059A111D126805912B
S1135A80002A00DA7FE00992013423782E2B00D11A
S1135A908DE021780322684800F03AFD002807D001
S1135AA0654B2A68C01A4023834013432B6001349A
S1135AB02178631C062261480293297600F028FDB0
S1135AC0002800D19DE05E4B002B00D090E007221F
S1135AD0059B07339343083305936B69039A9B181B
S1135AE06B61029C2378002B04D1029BE31A04937C
S1135AF012D003E0252BF8D00134F3E7049B029A7B
S1135B0039003000FFF773FF431C00D186E06A6957
S1135B10049B944663446B612378002B7ED001225E
S1135B20002352426A6002A95432521801342B6095
S1135B30EB60AB601370AB6521780522414800F03F
S1135B40E7FC002808D03F4B2A68C01A0123834091
S1135B5013432B600134EFE72B68DA0604D5532294
S1135B60202102A8121811701A0704D553222B21E0
S1135B7002A81218117022782A2A00D17CE7099B06
S1135B8000200A2105E05242EA60022213432B60FE
S1135B907AE72278303A092A04D84B4301349B1817
S1135BA00120F6E7002800D16FE709936DE76378D9
S1135BB02A2B0AD1059B02341A1D1B680592002B5F
S1135BC001DA01235B42079363E700230A201A00EA
S1135BD001346B6021783039092904D842430134F7
S1135BE052180123F6E7002B00D152E7079250E741
S1135BF005AB00933A00144B2900300000E000BFCD
S1135C0007E005AB00933A000F4B2900300000F089
S1135C108BF80390039B013300D05EE7BB895B06DE
S1135C2000D526E70B981FB0F0BDC04600700000F9
S1135C302070000040700000D26F0000D66F00009A
S1135C4000000000CC6F0000EF590000F7B517000A
S1135C5001938A680B6900900C00934200DA1300E8
S1135C6022003B6043321278002A01D001333B60AA
S1135C7023689B0602D53B6802333B6006252368F4
S1135C801D401ED0230043331B785A1E93412268C3
S1135C9092061CD53020E1184331087021005A1CAB
S1135CA045310978A2184332023311700FE0220003
S1135CB00123193201990098089EB047431C0ED065
S1135CC00135E3683A689B1A9D42F0DBDAE722006B
S1135CD0019943320098089DA847431C02D1012032
S1135CE0404220E006232068E1683A68034000252A
S1135CF0042B03D18D1AEB43DB171D40A3682269E3
S1135D00934201DD9B1AED180027BD420AD0220000
S1135D1001231A3201990098089EB047431CDED033
S1135D200137F2E70020FEBDF0B58BB006920A0001
S1135D3043320793059004920A7E0C00109B6E2A4E
S1135D4000D1ABE011D8632A22D009D8002A00D1AF
S1135D50B5E0582A00D0C5E045310A70814A4FE0C9
S1135D60642A1DD0692A1BD0BCE0732A00D1AAE0A2
S1135D7009D86F2A29D0702A00D0B3E020220968FC
S1135D800A43226037E0752A1FD0782A33D0A9E06D
S1135D900E001A684236111D196013683370A4E0AE
S1135DA021681A68080606D4490604D5111D19602D
S1135DB00023D55E02E0111D19601568002D3BDA41
S1135DC02D23049A6D42137036E021681A68080680
S1135DD006D4490604D51568111D1960ADB202E058
S1135DE0111D196015685F4B227E039308276F2AE3
S1135DF01DD00A271BE022007821453211705A4A2F
S1135E0019680392081D226818600D68100602D4F0
S1135E10500600D5ADB2D30702D520231A43226021
S1135E201027002D03D1202322689A4322602300E7
S1135E30002243331A7002E00A274A4B0393636833
S1135E40A360002B09DB0422216891432160002D0B
S1135E5005D1049E002B11D07BE0002D79D0049E47
S1135E6028003900FAF7F4FB039B013E5B5C280031
S1135E7033703900FAF766FB051EF1D1082F09D1FA
S1135E802368DB0706D563682269934202DC30236A
S1135E90013E3370049B9B1B23612BE009681A6845
S1135EA0080607D4490605D5111D19601368A28A8E
S1135EB01A8004E0111D1960136862691A600023D6
S1135EC0049E236116E01A68111D196016680021EA
S1135ED06268300000F01CFB002801D0801B606069
S1135EE0636803E0260042363270012323610023F5
S1135EF0049A1370079B09AA00932100069B059836
S1135F00FFF7A4FE431C02D10120404227E023698D
S1135F10320006990598079DA847431CF4D02368CE
S1135F2000259B070FD4099BE068984217DA1800F4
S1135F3015E022000123193206990598079EB047FF
S1135F40431CE1D00135E368099A9B1A9D42F0DBBA
S1135F50E9E72600039B42361B7833708EE70BB0CB
S1135F60F0BDC046DD6F0000EE6F0000002370B589
S1135F70064C050008002360FAF75AFC431C03D1C1
S1135F802368002B00D02B6070BDC04634E5FF1F92
S1135F90F8B505000F001400002804D08369002B15
S1135FA001D100F0BDF9224B9C4201D16C6808E09C
S1135FB0204B9C4201D1AC6803E01F4B9C4200D1B2
S1135FC0EC68A369A360A3891B070AD52369002B86
S1135FD007D023682269FEB2981A636998420FDBDE
S1135FE008E02100280000F029F80028F1D001265B
S1135FF076421BE02100280000F024F90028F6D1A5
S1136000A3680130013BA36023685A1C22601F70FF
S11360106369984204D0A389DB0707D50A2E05D10A
S11360202100280000F00EF90028E0D13000F8BD6E
